{
  "contractName": "Trades",
  "abi": [
    {
      "constant": true,
      "inputs": [
        {
          "name": "",
          "type": "uint256"
        }
      ],
      "name": "tradeReceived",
      "outputs": [
        {
          "name": "initiatorAddress",
          "type": "address"
        },
        {
          "name": "recipientAddress",
          "type": "address"
        },
        {
          "name": "title",
          "type": "bytes32"
        },
        {
          "name": "detail",
          "type": "bytes32"
        },
        {
          "name": "price",
          "type": "uint256"
        },
        {
          "name": "id",
          "type": "uint256"
        },
        {
          "name": "state",
          "type": "uint8"
        },
        {
          "name": "finishInfo",
          "type": "string"
        },
        {
          "name": "comfirm",
          "type": "bool"
        }
      ],
      "payable": false,
      "stateMutability": "view",
      "type": "function"
    },
    {
      "constant": true,
      "inputs": [
        {
          "name": "",
          "type": "uint256"
        }
      ],
      "name": "TradePool",
      "outputs": [
        {
          "name": "initiatorAddress",
          "type": "address"
        },
        {
          "name": "recipientAddress",
          "type": "address"
        },
        {
          "name": "title",
          "type": "bytes32"
        },
        {
          "name": "detail",
          "type": "bytes32"
        },
        {
          "name": "price",
          "type": "uint256"
        },
        {
          "name": "id",
          "type": "uint256"
        },
        {
          "name": "state",
          "type": "uint8"
        },
        {
          "name": "finishInfo",
          "type": "string"
        },
        {
          "name": "comfirm",
          "type": "bool"
        }
      ],
      "payable": false,
      "stateMutability": "view",
      "type": "function"
    },
    {
      "constant": true,
      "inputs": [
        {
          "name": "",
          "type": "uint256"
        }
      ],
      "name": "validTrade",
      "outputs": [
        {
          "name": "",
          "type": "bool"
        }
      ],
      "payable": false,
      "stateMutability": "view",
      "type": "function"
    },
    {
      "constant": true,
      "inputs": [],
      "name": "minPrice",
      "outputs": [
        {
          "name": "",
          "type": "uint256"
        }
      ],
      "payable": false,
      "stateMutability": "view",
      "type": "function"
    },
    {
      "inputs": [],
      "payable": false,
      "stateMutability": "nonpayable",
      "type": "constructor"
    },
    {
      "constant": false,
      "inputs": [
        {
          "name": "title_",
          "type": "bytes32"
        },
        {
          "name": "detail_",
          "type": "bytes32"
        }
      ],
      "name": "createTrade",
      "outputs": [
        {
          "name": "",
          "type": "bool"
        }
      ],
      "payable": true,
      "stateMutability": "payable",
      "type": "function"
    },
    {
      "constant": false,
      "inputs": [
        {
          "name": "id",
          "type": "uint256"
        }
      ],
      "name": "acceptTrade",
      "outputs": [
        {
          "name": "success",
          "type": "bool"
        }
      ],
      "payable": false,
      "stateMutability": "nonpayable",
      "type": "function"
    },
    {
      "constant": false,
      "inputs": [
        {
          "name": "id",
          "type": "uint256"
        },
        {
          "name": "info",
          "type": "string"
        }
      ],
      "name": "finishTrade",
      "outputs": [
        {
          "name": "success",
          "type": "bool"
        }
      ],
      "payable": false,
      "stateMutability": "nonpayable",
      "type": "function"
    },
    {
      "constant": false,
      "inputs": [
        {
          "name": "id",
          "type": "uint256"
        }
      ],
      "name": "comfirmTrade",
      "outputs": [
        {
          "name": "success",
          "type": "bool"
        }
      ],
      "payable": false,
      "stateMutability": "nonpayable",
      "type": "function"
    },
    {
      "constant": true,
      "inputs": [],
      "name": "showCount",
      "outputs": [
        {
          "name": "Count",
          "type": "uint256"
        }
      ],
      "payable": false,
      "stateMutability": "view",
      "type": "function"
    }
  ],
  "bytecode": "0x608060405234801561001057600080fd5b50600060038190555060006004819055506111f5806100306000396000f300608060405260043610610099576000357c0100000000000000000000000000000000000000000000000000000000900463ffffffff16806353f8226b1461009e5780635f0b844414610129578063a9fce45e14610154578063bfff69aa146102ac578063c64ebad9146102f1578063cb31959314610449578063e45be8eb1461048e578063e6e3bac6146104b9578063ecb9fec314610503575b600080fd5b3480156100aa57600080fd5b5061010f60048036038101908080359060200190929190803590602001908201803590602001908080601f0160208091040260200160405190810160405280939291908181526020018383808284378201915050505050509192919290505050610548565b604051808215151515815260200191505060405180910390f35b34801561013557600080fd5b5061013e61066b565b6040518082815260200191505060405180910390f35b34801561016057600080fd5b5061017f60048036038101908080359060200190929190505050610675565b604051808a73ffffffffffffffffffffffffffffffffffffffff1673ffffffffffffffffffffffffffffffffffffffff1681526020018973ffffffffffffffffffffffffffffffffffffffff1673ffffffffffffffffffffffffffffffffffffffff1681526020018860001916600019168152602001876000191660001916815260200186815260200185815260200184600381111561021b57fe5b60ff1681526020018060200183151515158152602001828103825284818151815260200191508051906020019080838360005b8381101561026957808201518184015260208101905061024e565b50505050905090810190601f1680156102965780820380516001836020036101000a031916815260200191505b509a505050505050505050505060405180910390f35b3480156102b857600080fd5b506102d7600480360381019080803590602001909291905050506107b5565b604051808215151515815260200191505060405180910390f35b3480156102fd57600080fd5b5061031c600480360381019080803590602001909291905050506109bc565b604051808a73ffffffffffffffffffffffffffffffffffffffff1673ffffffffffffffffffffffffffffffffffffffff1681526020018973ffffffffffffffffffffffffffffffffffffffff1673ffffffffffffffffffffffffffffffffffffffff168152602001886000191660001916815260200187600019166000191681526020018681526020018581526020018460038111156103b857fe5b60ff1681526020018060200183151515158152602001828103825284818151815260200191508051906020019080838360005b838110156104065780820151818401526020810190506103eb565b50505050905090810190601f1680156104335780820380516001836020036101000a031916815260200191505b509a505050505050505050505060405180910390f35b34801561045557600080fd5b5061047460048036038101908080359060200190929190505050610b0b565b604051808215151515815260200191505060405180910390f35b34801561049a57600080fd5b506104a3610b2b565b6040518082815260200191505060405180910390f35b6104e960048036038101908080356000191690602001909291908035600019169060200190929190505050610b31565b604051808215151515815260200191505060405180910390f35b34801561050f57600080fd5b5061052e60048036038101908080359060200190929190505050610ecd565b604051808215151515815260200191505060405180910390f35b60008060008085815260200190815260200160002060009054906101000a900460ff16151561057657600080fd5b6001600085815260200190815260200160002090506001600381111561059857fe5b8160060160009054906101000a900460ff1660038111156105b557fe5b14158061061257503373ffffffffffffffffffffffffffffffffffffffff168160010160009054906101000a900473ffffffffffffffffffffffffffffffffffffffff1673ffffffffffffffffffffffffffffffffffffffff1614155b156106205760009150610664565b82816007019080519060200190610638929190611018565b5060028160060160006101000a81548160ff0219169083600381111561065a57fe5b0217905550600191505b5092915050565b6000600354905090565b60016020528060005260406000206000915090508060000160009054906101000a900473ffffffffffffffffffffffffffffffffffffffff16908060010160009054906101000a900473ffffffffffffffffffffffffffffffffffffffff16908060020154908060030154908060040154908060050154908060060160009054906101000a900460ff1690806007018054600181600116156101000203166002900480601f0160208091040260200160405190810160405280929190818152602001828054600181600116156101000203166002900480156107985780601f1061076d57610100808354040283529160200191610798565b820191906000526020600020905b81548152906001019060200180831161077b57829003601f168201915b5050505050908060080160009054906101000a900460ff16905089565b60008060008084815260200190815260200160002060009054906101000a900460ff1615156107e357600080fd5b6001600084815260200190815260200160002090506002600381111561080557fe5b8160060160009054906101000a900460ff16600381111561082257fe5b14158061087f57508060000160009054906101000a900473ffffffffffffffffffffffffffffffffffffffff1673ffffffffffffffffffffffffffffffffffffffff163373ffffffffffffffffffffffffffffffffffffffff1614155b1561088d57600091506109b6565b600180600085815260200190815260200160002060080160006101000a81548160ff02191690831515021790555060036001600085815260200190815260200160002060060160006101000a81548160ff021916908360038111156108ee57fe5b02179055506001600084815260200190815260200160002060010160009054906101000a900473ffffffffffffffffffffffffffffffffffffffff1673ffffffffffffffffffffffffffffffffffffffff166108fc60016000868152602001908152602001600020600401549081150290604051600060405180830381858888f19350505050158015610985573d6000803e3d6000fd5b50600080600085815260200190815260200160002060006101000a81548160ff021916908315150217905550600191505b50919050565b6002818154811015156109cb57fe5b90600052602060002090600902016000915090508060000160009054906101000a900473ffffffffffffffffffffffffffffffffffffffff16908060010160009054906101000a900473ffffffffffffffffffffffffffffffffffffffff16908060020154908060030154908060040154908060050154908060060160009054906101000a900460ff1690806007018054600181600116156101000203166002900480601f016020809104026020016040519081016040528092919081815260200182805460018160011615610100020316600290048015610aee5780601f10610ac357610100808354040283529160200191610aee565b820191906000526020600020905b815481529060010190602001808311610ad157829003601f168201915b5050505050908060080160009054906101000a900460ff16905089565b60006020528060005260406000206000915054906101000a900460ff1681565b60045481565b6000610b3b611098565b600454341015610b4e5760009150610ec6565b610120604051908101604052803373ffffffffffffffffffffffffffffffffffffffff168152602001600073ffffffffffffffffffffffffffffffffffffffff1681526020018560001916815260200184600019168152602001348152602001600354815260200160006003811115610bc357fe5b8152602001602060405190810160405280600081525081526020016000151581525090506002819080600181540180825580915050906001820390600052602060002090600902016000909192909190915060008201518160000160006101000a81548173ffffffffffffffffffffffffffffffffffffffff021916908373ffffffffffffffffffffffffffffffffffffffff16021790555060208201518160010160006101000a81548173ffffffffffffffffffffffffffffffffffffffff021916908373ffffffffffffffffffffffffffffffffffffffff16021790555060408201518160020190600019169055606082015181600301906000191690556080820151816004015560a0820151816005015560c08201518160060160006101000a81548160ff02191690836003811115610cfb57fe5b021790555060e0820151816007019080519060200190610d1c929190611124565b506101008201518160080160006101000a81548160ff0219169083151502179055505050508060016000600354815260200190815260200160002060008201518160000160006101000a81548173ffffffffffffffffffffffffffffffffffffffff021916908373ffffffffffffffffffffffffffffffffffffffff16021790555060208201518160010160006101000a81548173ffffffffffffffffffffffffffffffffffffffff021916908373ffffffffffffffffffffffffffffffffffffffff16021790555060408201518160020190600019169055606082015181600301906000191690556080820151816004015560a0820151816005015560c08201518160060160006101000a81548160ff02191690836003811115610e3d57fe5b021790555060e0820151816007019080519060200190610e5e929190611124565b506101008201518160080160006101000a81548160ff0219169083151502179055509050506001600080600354815260200190815260200160002060006101000a81548160ff0219169083151502179055506001600360008282540192505081905550600191505b5092915050565b60008060008084815260200190815260200160002060009054906101000a900460ff161515610efb57600080fd5b60016000848152602001908152602001600020905060006003811115610f1d57fe5b8160060160009054906101000a900460ff166003811115610f3a57fe5b141580610f9657503373ffffffffffffffffffffffffffffffffffffffff168160000160009054906101000a900473ffffffffffffffffffffffffffffffffffffffff1673ffffffffffffffffffffffffffffffffffffffff16145b15610fa45760009150611012565b338160010160006101000a81548173ffffffffffffffffffffffffffffffffffffffff021916908373ffffffffffffffffffffffffffffffffffffffff16021790555060018160060160006101000a81548160ff0219169083600381111561100857fe5b0217905550600191505b50919050565b828054600181600116156101000203166002900490600052602060002090601f016020900481019282601f1061105957805160ff1916838001178555611087565b82800160010185558215611087579182015b8281111561108657825182559160200191906001019061106b565b5b50905061109491906111a4565b5090565b61012060405190810160405280600073ffffffffffffffffffffffffffffffffffffffff168152602001600073ffffffffffffffffffffffffffffffffffffffff168152602001600080191681526020016000801916815260200160008152602001600081526020016000600381111561110e57fe5b8152602001606081526020016000151581525090565b828054600181600116156101000203166002900490600052602060002090601f016020900481019282601f1061116557805160ff1916838001178555611193565b82800160010185558215611193579182015b82811115611192578251825591602001919060010190611177565b5b5090506111a091906111a4565b5090565b6111c691905b808211156111c25760008160009055506001016111aa565b5090565b905600a165627a7a72305820e1411a395c7c2e0cfa6197d3a0a1beafc52e232b42110d88677d1018e99afcc40029",
  "source": "pragma solidity ^0.4.18;\r\n\r\ncontract Trades{\r\n\r\n    enum tradeState {Unaccept, Unfinish, Uncomfirm, End}\r\n\r\n    struct trade{\r\n        address initiatorAddress;\r\n        address recipientAddress;\r\n        bytes32 title;\r\n        bytes32 detail;\r\n        uint price;\r\n        uint id;\r\n        tradeState state;\r\n        string finishInfo;\r\n        bool comfirm;\r\n    }\r\n\r\n    mapping (uint => bool) public validTrade;\r\n    mapping (uint => trade) public tradeReceived;\r\n    trade[] public TradePool;\r\n    uint count;\r\n    uint public minPrice;\r\n\r\n    constructor() public {\r\n        count = 0;\r\n        minPrice = 0;\r\n    }\r\n\r\n    function createTrade(bytes32 title_, bytes32 detail_) payable public returns (bool) {\r\n        if (msg.value < minPrice){\r\n            return false;\r\n        }\r\n        trade memory item = trade({\r\n            initiatorAddress: msg.sender,\r\n            recipientAddress: 0,\r\n            title: title_,\r\n            detail: detail_,\r\n            price: msg.value,\r\n            id: count,\r\n            state : tradeState.Unaccept,\r\n            finishInfo: \"\",\r\n            comfirm: false\r\n        });\r\n        TradePool.push(item);\r\n        tradeReceived[count] = item;\r\n        validTrade[count] = true;\r\n        count += 1;\r\n        return true;\r\n    }\r\n\r\n    function acceptTrade(uint id) public returns (bool success) {\r\n        require(validTrade[id]);\r\n\r\n        trade storage tmptrade = tradeReceived[id];\r\n        if (tmptrade.state != tradeState.Unaccept || tmptrade.initiatorAddress == msg.sender){\r\n            return false;\r\n        }\r\n        tmptrade.recipientAddress = msg.sender;\r\n        tmptrade.state = tradeState.Unfinish;\r\n        return true;\r\n    }\r\n\r\n    function finishTrade(uint id, string info) public returns (bool success){\r\n        require(validTrade[id]);\r\n\r\n        trade storage tmptrade = tradeReceived[id];\r\n        if (tmptrade.state != tradeState.Unfinish || tmptrade.recipientAddress != msg.sender){\r\n            return false;\r\n        }\r\n        tmptrade.finishInfo = info;\r\n        tmptrade.state = tradeState.Uncomfirm;\r\n        return true;\r\n    }\r\n\r\n    function comfirmTrade(uint id) public returns (bool success){\r\n        require(validTrade[id]);\r\n\r\n        trade storage tmptrade = tradeReceived[id];\r\n        if(tmptrade.state != tradeState.Uncomfirm || msg.sender != tmptrade.initiatorAddress){\r\n            return false;\r\n        }\r\n        tradeReceived[id].comfirm = true;\r\n        tradeReceived[id].state = tradeState.End;\r\n        tradeReceived[id].recipientAddress.transfer(tradeReceived[id].price);\r\n        validTrade[id] = false;\r\n        return true;\r\n    }\r\n    \r\n    function showCount() view public returns (uint Count){\r\n        return count;\r\n    }\r\n\r\n}",
  "sourcePath": "D:\\gitRep\\dapp\\contracts\\Trades.sol",
  "compiler": {
    "name": "solc",
    "version": "0.4.24+commit.e67f0147.Emscripten.clang"
  },
  "schemaVersion": "2.0.1",
  "updatedAt": "2018-11-20T13:04:19.163Z"
}