{
  "contractName": "Trades",
  "abi": [
    {
      "constant": true,
      "inputs": [],
      "name": "owner",
      "outputs": [
        {
          "name": "",
          "type": "address"
        }
      ],
      "payable": false,
      "stateMutability": "view",
      "type": "function"
    },
    {
      "constant": true,
      "inputs": [
        {
          "name": "",
          "type": "uint256"
        }
      ],
      "name": "tradeReceived",
      "outputs": [
        {
          "name": "initiatorAddress",
          "type": "address"
        },
        {
          "name": "recipientAddress",
          "type": "address"
        },
        {
          "name": "title",
          "type": "string"
        },
        {
          "name": "detail",
          "type": "string"
        },
        {
          "name": "price",
          "type": "uint256"
        },
        {
          "name": "id",
          "type": "uint256"
        },
        {
          "name": "state",
          "type": "uint8"
        },
        {
          "name": "finishInfo",
          "type": "string"
        },
        {
          "name": "comfirm",
          "type": "bool"
        }
      ],
      "payable": false,
      "stateMutability": "view",
      "type": "function"
    },
    {
      "constant": true,
      "inputs": [
        {
          "name": "",
          "type": "uint256"
        }
      ],
      "name": "TradePool",
      "outputs": [
        {
          "name": "initiatorAddress",
          "type": "address"
        },
        {
          "name": "recipientAddress",
          "type": "address"
        },
        {
          "name": "title",
          "type": "string"
        },
        {
          "name": "detail",
          "type": "string"
        },
        {
          "name": "price",
          "type": "uint256"
        },
        {
          "name": "id",
          "type": "uint256"
        },
        {
          "name": "state",
          "type": "uint8"
        },
        {
          "name": "finishInfo",
          "type": "string"
        },
        {
          "name": "comfirm",
          "type": "bool"
        }
      ],
      "payable": false,
      "stateMutability": "view",
      "type": "function"
    },
    {
      "constant": true,
      "inputs": [
        {
          "name": "",
          "type": "uint256"
        }
      ],
      "name": "validTrade",
      "outputs": [
        {
          "name": "",
          "type": "bool"
        }
      ],
      "payable": false,
      "stateMutability": "view",
      "type": "function"
    },
    {
      "constant": true,
      "inputs": [],
      "name": "minPrice",
      "outputs": [
        {
          "name": "",
          "type": "uint256"
        }
      ],
      "payable": false,
      "stateMutability": "view",
      "type": "function"
    },
    {
      "inputs": [],
      "payable": false,
      "stateMutability": "nonpayable",
      "type": "constructor"
    },
    {
      "anonymous": false,
      "inputs": [
        {
          "indexed": false,
          "name": "_id",
          "type": "uint256"
        },
        {
          "indexed": false,
          "name": "_state",
          "type": "uint8"
        },
        {
          "indexed": false,
          "name": "_price",
          "type": "uint256"
        },
        {
          "indexed": false,
          "name": "_success",
          "type": "bool"
        }
      ],
      "name": "StateTranslate",
      "type": "event"
    },
    {
      "constant": false,
      "inputs": [
        {
          "name": "title_",
          "type": "string"
        },
        {
          "name": "detail_",
          "type": "string"
        }
      ],
      "name": "createTrade",
      "outputs": [],
      "payable": true,
      "stateMutability": "payable",
      "type": "function"
    },
    {
      "constant": false,
      "inputs": [
        {
          "name": "id",
          "type": "uint256"
        }
      ],
      "name": "acceptTrade",
      "outputs": [],
      "payable": false,
      "stateMutability": "nonpayable",
      "type": "function"
    },
    {
      "constant": false,
      "inputs": [
        {
          "name": "id",
          "type": "uint256"
        },
        {
          "name": "info",
          "type": "string"
        }
      ],
      "name": "finishTrade",
      "outputs": [],
      "payable": false,
      "stateMutability": "nonpayable",
      "type": "function"
    },
    {
      "constant": false,
      "inputs": [
        {
          "name": "id",
          "type": "uint256"
        }
      ],
      "name": "comfirmTrade",
      "outputs": [],
      "payable": false,
      "stateMutability": "nonpayable",
      "type": "function"
    },
    {
      "constant": true,
      "inputs": [],
      "name": "showCount",
      "outputs": [
        {
          "name": "Count",
          "type": "uint256"
        }
      ],
      "payable": false,
      "stateMutability": "view",
      "type": "function"
    },
    {
      "constant": false,
      "inputs": [],
      "name": "fund",
      "outputs": [],
      "payable": true,
      "stateMutability": "payable",
      "type": "function"
    }
  ],
  "bytecode": "0x608060405234801561001057600080fd5b5060006004819055506000600581905550336000806101000a81548173ffffffffffffffffffffffffffffffffffffffff021916908373ffffffffffffffffffffffffffffffffffffffff160217905550611b8c806100706000396000f3006080604052600436106100af576000357c0100000000000000000000000000000000000000000000000000000000900463ffffffff16806353f8226b146100b45780635f0b8444146101275780638da5cb5b14610152578063a9fce45e146101a9578063b60d4288146103bb578063bfff69aa146103c5578063c64ebad9146103f2578063cb31959314610604578063e23b23f614610649578063e45be8eb146106eb578063ecb9fec314610716575b600080fd5b3480156100c057600080fd5b5061012560048036038101908080359060200190929190803590602001908201803590602001908080601f0160208091040260200160405190810160405280939291908181526020018383808284378201915050505050509192919290505050610743565b005b34801561013357600080fd5b5061013c6109bb565b6040518082815260200191505060405180910390f35b34801561015e57600080fd5b506101676109c5565b604051808273ffffffffffffffffffffffffffffffffffffffff1673ffffffffffffffffffffffffffffffffffffffff16815260200191505060405180910390f35b3480156101b557600080fd5b506101d4600480360381019080803590602001909291905050506109ea565b604051808a73ffffffffffffffffffffffffffffffffffffffff1673ffffffffffffffffffffffffffffffffffffffff1681526020018973ffffffffffffffffffffffffffffffffffffffff1673ffffffffffffffffffffffffffffffffffffffff168152602001806020018060200188815260200187815260200186600381111561025c57fe5b60ff168152602001806020018515151515815260200184810384528b818151815260200191508051906020019080838360005b838110156102aa57808201518184015260208101905061028f565b50505050905090810190601f1680156102d75780820380516001836020036101000a031916815260200191505b5084810383528a818151815260200191508051906020019080838360005b838110156103105780820151818401526020810190506102f5565b50505050905090810190601f16801561033d5780820380516001836020036101000a031916815260200191505b50848103825286818151815260200191508051906020019080838360005b8381101561037657808201518184015260208101905061035b565b50505050905090810190601f1680156103a35780820380516001836020036101000a031916815260200191505b509c5050505050505050505050505060405180910390f35b6103c3610c5a565b005b3480156103d157600080fd5b506103f060048036038101908080359060200190929190505050610c5c565b005b3480156103fe57600080fd5b5061041d60048036038101908080359060200190929190505050610fa5565b604051808a73ffffffffffffffffffffffffffffffffffffffff1673ffffffffffffffffffffffffffffffffffffffff1681526020018973ffffffffffffffffffffffffffffffffffffffff1673ffffffffffffffffffffffffffffffffffffffff16815260200180602001806020018881526020018781526020018660038111156104a557fe5b60ff168152602001806020018515151515815260200184810384528b818151815260200191508051906020019080838360005b838110156104f35780820151818401526020810190506104d8565b50505050905090810190601f1680156105205780820380516001836020036101000a031916815260200191505b5084810383528a818151815260200191508051906020019080838360005b8381101561055957808201518184015260208101905061053e565b50505050905090810190601f1680156105865780820380516001836020036101000a031916815260200191505b50848103825286818151815260200191508051906020019080838360005b838110156105bf5780820151818401526020810190506105a4565b50505050905090810190601f1680156105ec5780820380516001836020036101000a031916815260200191505b509c5050505050505050505050505060405180910390f35b34801561061057600080fd5b5061062f60048036038101908080359060200190929190505050611224565b604051808215151515815260200191505060405180910390f35b6106e9600480360381019080803590602001908201803590602001908080601f0160208091040260200160405190810160405280939291908181526020018383808284378201915050505050509192919290803590602001908201803590602001908080601f0160208091040260200160405190810160405280939291908181526020018383808284378201915050505050509192919290505050611244565b005b3480156106f757600080fd5b5061070061170f565b6040518082815260200191505060405180910390f35b34801561072257600080fd5b5061074160048036038101908080359060200190929190505050611715565b005b60006001600084815260200190815260200160002060009054906101000a900460ff1615156107da576040517f08c379a000000000000000000000000000000000000000000000000000000000815260040180806020018281038252600a8152602001807f756e76616c69642069640000000000000000000000000000000000000000000081525060200191505060405180910390fd5b600260008481526020019081526020016000209050600160038111156107fc57fe5b8160060160009054906101000a900460ff16600381111561081957fe5b14158061087657503373ffffffffffffffffffffffffffffffffffffffff168160010160009054906101000a900473ffffffffffffffffffffffffffffffffffffffff1673ffffffffffffffffffffffffffffffffffffffff1614155b156108fb577faf576b98023e90caf6e5e8198b6efd4b6c17cea681f05b37105fec41a9607b7d81600501548260060160009054906101000a900460ff1683600401546000604051808581526020018460038111156108d057fe5b60ff1681526020018381526020018215151515815260200194505050505060405180910390a16109b6565b818160070190805190602001906109139291906119b5565b5060028160060160006101000a81548160ff0219169083600381111561093557fe5b02179055507faf576b98023e90caf6e5e8198b6efd4b6c17cea681f05b37105fec41a9607b7d81600501548260060160009054906101000a900460ff16836004015460016040518085815260200184600381111561098f57fe5b60ff1681526020018381526020018215151515815260200194505050505060405180910390a15b505050565b6000600454905090565b6000809054906101000a900473ffffffffffffffffffffffffffffffffffffffff1681565b60026020528060005260406000206000915090508060000160009054906101000a900473ffffffffffffffffffffffffffffffffffffffff16908060010160009054906101000a900473ffffffffffffffffffffffffffffffffffffffff1690806002018054600181600116156101000203166002900480601f016020809104026020016040519081016040528092919081815260200182805460018160011615610100020316600290048015610ae25780601f10610ab757610100808354040283529160200191610ae2565b820191906000526020600020905b815481529060010190602001808311610ac557829003601f168201915b505050505090806003018054600181600116156101000203166002900480601f016020809104026020016040519081016040528092919081815260200182805460018160011615610100020316600290048015610b805780601f10610b5557610100808354040283529160200191610b80565b820191906000526020600020905b815481529060010190602001808311610b6357829003601f168201915b5050505050908060040154908060050154908060060160009054906101000a900460ff1690806007018054600181600116156101000203166002900480601f016020809104026020016040519081016040528092919081815260200182805460018160011615610100020316600290048015610c3d5780601f10610c1257610100808354040283529160200191610c3d565b820191906000526020600020905b815481529060010190602001808311610c2057829003601f168201915b5050505050908060080160009054906101000a900460ff16905089565b565b60006001600083815260200190815260200160002060009054906101000a900460ff161515610cf3576040517f08c379a000000000000000000000000000000000000000000000000000000000815260040180806020018281038252600a8152602001807f756e76616c69642069640000000000000000000000000000000000000000000081525060200191505060405180910390fd5b60026000838152602001908152602001600020905060026003811115610d1557fe5b8160060160009054906101000a900460ff166003811115610d3257fe5b141580610d8f57508060000160009054906101000a900473ffffffffffffffffffffffffffffffffffffffff1673ffffffffffffffffffffffffffffffffffffffff163373ffffffffffffffffffffffffffffffffffffffff1614155b15610e14577faf576b98023e90caf6e5e8198b6efd4b6c17cea681f05b37105fec41a9607b7d81600501548260060160009054906101000a900460ff168360040154600060405180858152602001846003811115610de957fe5b60ff1681526020018381526020018215151515815260200194505050505060405180910390a1610fa1565b60016002600084815260200190815260200160002060080160006101000a81548160ff02191690831515021790555060036002600084815260200190815260200160002060060160006101000a81548160ff02191690836003811115610e7657fe5b02179055506000809054906101000a900473ffffffffffffffffffffffffffffffffffffffff1673ffffffffffffffffffffffffffffffffffffffff166108fc60026000858152602001908152602001600020600401549081150290604051600060405180830381858888f19350505050158015610ef8573d6000803e3d6000fd5b5060006001600084815260200190815260200160002060006101000a81548160ff0219169083151502179055507faf576b98023e90caf6e5e8198b6efd4b6c17cea681f05b37105fec41a9607b7d81600501548260060160009054906101000a900460ff168360040154600160405180858152602001846003811115610f7a57fe5b60ff1681526020018381526020018215151515815260200194505050505060405180910390a15b5050565b600381815481101515610fb457fe5b90600052602060002090600902016000915090508060000160009054906101000a900473ffffffffffffffffffffffffffffffffffffffff16908060010160009054906101000a900473ffffffffffffffffffffffffffffffffffffffff1690806002018054600181600116156101000203166002900480601f0160208091040260200160405190810160405280929190818152602001828054600181600116156101000203166002900480156110ac5780601f10611081576101008083540402835291602001916110ac565b820191906000526020600020905b81548152906001019060200180831161108f57829003601f168201915b505050505090806003018054600181600116156101000203166002900480601f01602080910402602001604051908101604052809291908181526020018280546001816001161561010002031660029004801561114a5780601f1061111f5761010080835404028352916020019161114a565b820191906000526020600020905b81548152906001019060200180831161112d57829003601f168201915b5050505050908060040154908060050154908060060160009054906101000a900460ff1690806007018054600181600116156101000203166002900480601f0160208091040260200160405190810160405280929190818152602001828054600181600116156101000203166002900480156112075780601f106111dc57610100808354040283529160200191611207565b820191906000526020600020905b8154815290600101906020018083116111ea57829003601f168201915b5050505050908060080160009054906101000a900460ff16905089565b60016020528060005260406000206000915054906101000a900460ff1681565b61124c611a35565b6005543410156112c0577faf576b98023e90caf6e5e8198b6efd4b6c17cea681f05b37105fec41a9607b7d60045460003460006040518085815260200184600381111561129557fe5b60ff1681526020018381526020018215151515815260200194505050505060405180910390a161170a565b610120604051908101604052803373ffffffffffffffffffffffffffffffffffffffff168152602001600073ffffffffffffffffffffffffffffffffffffffff16815260200184815260200183815260200134815260200160045481526020016000600381111561132d57fe5b8152602001602060405190810160405280600081525081526020016000151581525090506003819080600181540180825580915050906001820390600052602060002090600902016000909192909190915060008201518160000160006101000a81548173ffffffffffffffffffffffffffffffffffffffff021916908373ffffffffffffffffffffffffffffffffffffffff16021790555060208201518160010160006101000a81548173ffffffffffffffffffffffffffffffffffffffff021916908373ffffffffffffffffffffffffffffffffffffffff1602179055506040820151816002019080519060200190611429929190611abb565b506060820151816003019080519060200190611446929190611abb565b506080820151816004015560a0820151816005015560c08201518160060160006101000a81548160ff0219169083600381111561147f57fe5b021790555060e08201518160070190805190602001906114a0929190611abb565b506101008201518160080160006101000a81548160ff0219169083151502179055505050508060026000600454815260200190815260200160002060008201518160000160006101000a81548173ffffffffffffffffffffffffffffffffffffffff021916908373ffffffffffffffffffffffffffffffffffffffff16021790555060208201518160010160006101000a81548173ffffffffffffffffffffffffffffffffffffffff021916908373ffffffffffffffffffffffffffffffffffffffff1602179055506040820151816002019080519060200190611585929190611abb565b5060608201518160030190805190602001906115a2929190611abb565b506080820151816004015560a0820151816005015560c08201518160060160006101000a81548160ff021916908360038111156115db57fe5b021790555060e08201518160070190805190602001906115fc929190611abb565b506101008201518160080160006101000a81548160ff0219169083151502179055509050506001806000600454815260200190815260200160002060006101000a81548160ff02191690831515021790555060016004600082825401925050819055507faf576b98023e90caf6e5e8198b6efd4b6c17cea681f05b37105fec41a9607b7d60016004540360026000600160045403815260200190815260200160002060060160009054906101000a900460ff16600260006001600454038152602001908152602001600020600401546001604051808581526020018460038111156116e357fe5b60ff1681526020018381526020018215151515815260200194505050505060405180910390a15b505050565b60055481565b60006001600083815260200190815260200160002060009054906101000a900460ff1615156117ac576040517f08c379a000000000000000000000000000000000000000000000000000000000815260040180806020018281038252600a8152602001807f756e76616c69642069640000000000000000000000000000000000000000000081525060200191505060405180910390fd5b600260008381526020019081526020016000209050600060038111156117ce57fe5b8160060160009054906101000a900460ff1660038111156117eb57fe5b14158061184757503373ffffffffffffffffffffffffffffffffffffffff168160000160009054906101000a900473ffffffffffffffffffffffffffffffffffffffff1673ffffffffffffffffffffffffffffffffffffffff16145b156118cc577faf576b98023e90caf6e5e8198b6efd4b6c17cea681f05b37105fec41a9607b7d81600501548260060160009054906101000a900460ff1683600401546000604051808581526020018460038111156118a157fe5b60ff1681526020018381526020018215151515815260200194505050505060405180910390a16119b1565b338160010160006101000a81548173ffffffffffffffffffffffffffffffffffffffff021916908373ffffffffffffffffffffffffffffffffffffffff16021790555060018160060160006101000a81548160ff0219169083600381111561193057fe5b02179055507faf576b98023e90caf6e5e8198b6efd4b6c17cea681f05b37105fec41a9607b7d81600501548260060160009054906101000a900460ff16836004015460016040518085815260200184600381111561198a57fe5b60ff1681526020018381526020018215151515815260200194505050505060405180910390a15b5050565b828054600181600116156101000203166002900490600052602060002090601f016020900481019282601f106119f657805160ff1916838001178555611a24565b82800160010185558215611a24579182015b82811115611a23578251825591602001919060010190611a08565b5b509050611a319190611b3b565b5090565b61012060405190810160405280600073ffffffffffffffffffffffffffffffffffffffff168152602001600073ffffffffffffffffffffffffffffffffffffffff1681526020016060815260200160608152602001600081526020016000815260200160006003811115611aa557fe5b8152602001606081526020016000151581525090565b828054600181600116156101000203166002900490600052602060002090601f016020900481019282601f10611afc57805160ff1916838001178555611b2a565b82800160010185558215611b2a579182015b82811115611b29578251825591602001919060010190611b0e565b5b509050611b379190611b3b565b5090565b611b5d91905b80821115611b59576000816000905550600101611b41565b5090565b905600a165627a7a72305820741cdb1daa1c128f32fe820b5f40ebb72259b24bcf7eedf12010d58b412313680029",
  "source": "pragma solidity ^0.4.18;\r\n\r\ncontract Trades{\r\n\r\n    enum tradeState {Unaccept, Unfinish, Uncomfirm, End}\r\n\r\n    event StateTranslate(uint _id, tradeState _state, uint _price,bool _success);\r\n\r\n    struct trade{\r\n        address initiatorAddress;\r\n        address recipientAddress;\r\n        string title;\r\n        string detail;\r\n        uint price;\r\n        uint id;\r\n        tradeState state;\r\n        string finishInfo;\r\n        bool comfirm;\r\n    }\r\n\r\n    address public owner;\r\n    mapping (uint => bool) public validTrade;\r\n    mapping (uint => trade) public tradeReceived;\r\n    trade[] public TradePool;\r\n    uint count;\r\n    uint public minPrice;\r\n\r\n    constructor() public {\r\n        count = 0;\r\n        minPrice = 0;\r\n        owner = msg.sender;\r\n    }\r\n\r\n    function createTrade(string title_, string detail_) payable public {\r\n        if (msg.value < minPrice){\r\n            emit StateTranslate(count, tradeState.Unaccept, msg.value, false);\r\n            return;\r\n        }\r\n        trade memory item = trade({\r\n            initiatorAddress: msg.sender,\r\n            recipientAddress: 0,\r\n            title: title_,\r\n            detail: detail_,\r\n            price: msg.value,\r\n            id: count,\r\n            state : tradeState.Unaccept,\r\n            finishInfo: \"\",\r\n            comfirm: false\r\n        });\r\n        TradePool.push(item);\r\n        tradeReceived[count] = item;\r\n        validTrade[count] = true;\r\n        count += 1;\r\n        emit StateTranslate(count-1, tradeReceived[count-1].state, tradeReceived[count-1].price, true);\r\n    }\r\n\r\n    function acceptTrade(uint id) public {\r\n        require(validTrade[id], \"unvalid id\");\r\n\r\n        trade storage tmptrade = tradeReceived[id];\r\n        if (tmptrade.state != tradeState.Unaccept || tmptrade.initiatorAddress == msg.sender){\r\n            emit StateTranslate(tmptrade.id, tmptrade.state, tmptrade.price, false);\r\n            return;\r\n        }\r\n        tmptrade.recipientAddress = msg.sender;\r\n        tmptrade.state = tradeState.Unfinish;\r\n        emit StateTranslate(tmptrade.id, tmptrade.state, tmptrade.price, true);\r\n    }\r\n\r\n    function finishTrade(uint id, string info) public{\r\n        require(validTrade[id], \"unvalid id\");\r\n\r\n        trade storage tmptrade = tradeReceived[id];\r\n        if (tmptrade.state != tradeState.Unfinish || tmptrade.recipientAddress != msg.sender){\r\n            emit StateTranslate(tmptrade.id, tmptrade.state, tmptrade.price, false);\r\n            return;\r\n        }\r\n        tmptrade.finishInfo = info;\r\n        tmptrade.state = tradeState.Uncomfirm;\r\n        emit StateTranslate(tmptrade.id, tmptrade.state, tmptrade.price, true);\r\n    }\r\n\r\n    function comfirmTrade(uint id) public{\r\n        require(validTrade[id], \"unvalid id\");\r\n\r\n        trade storage tmptrade = tradeReceived[id];\r\n        if(tmptrade.state != tradeState.Uncomfirm || msg.sender != tmptrade.initiatorAddress){\r\n            emit StateTranslate(tmptrade.id, tmptrade.state, tmptrade.price, false);\r\n            return;\r\n        }\r\n        tradeReceived[id].comfirm = true;\r\n        tradeReceived[id].state = tradeState.End;\r\n        owner.transfer(tradeReceived[id].price);\r\n        validTrade[id] = false;\r\n        emit StateTranslate(tmptrade.id, tmptrade.state, tmptrade.price, true);\r\n    }\r\n    \r\n    function showCount() view public returns (uint Count){\r\n        return count;\r\n    }\r\n\r\n    function fund() external payable {}\r\n}\r\n",
  "sourcePath": "D:\\gitRep\\dapp\\contracts\\Trades.sol",
  "compiler": {
    "name": "solc",
    "version": "0.4.24+commit.e67f0147.Emscripten.clang"
  },
  "schemaVersion": "2.0.1",
  "updatedAt": "2018-11-21T14:27:49.485Z"
}