{
  "contractName": "Trades",
  "abi": [
    {
      "constant": true,
      "inputs": [],
      "name": "owner",
      "outputs": [
        {
          "name": "",
          "type": "address"
        }
      ],
      "payable": false,
      "stateMutability": "view",
      "type": "function",
      "signature": "0x8da5cb5b"
    },
    {
      "constant": true,
      "inputs": [
        {
          "name": "",
          "type": "uint256"
        }
      ],
      "name": "tradeReceived",
      "outputs": [
        {
          "name": "initiatorAddress",
          "type": "address"
        },
        {
          "name": "recipientAddress",
          "type": "address"
        },
        {
          "name": "title",
          "type": "string"
        },
        {
          "name": "detail",
          "type": "string"
        },
        {
          "name": "price",
          "type": "uint256"
        },
        {
          "name": "id",
          "type": "uint256"
        },
        {
          "name": "state",
          "type": "uint8"
        },
        {
          "name": "finishInfo",
          "type": "string"
        },
        {
          "name": "comfirm",
          "type": "bool"
        }
      ],
      "payable": false,
      "stateMutability": "view",
      "type": "function",
      "signature": "0xa9fce45e"
    },
    {
      "constant": true,
      "inputs": [
        {
          "name": "",
          "type": "uint256"
        }
      ],
      "name": "TradePool",
      "outputs": [
        {
          "name": "initiatorAddress",
          "type": "address"
        },
        {
          "name": "recipientAddress",
          "type": "address"
        },
        {
          "name": "title",
          "type": "string"
        },
        {
          "name": "detail",
          "type": "string"
        },
        {
          "name": "price",
          "type": "uint256"
        },
        {
          "name": "id",
          "type": "uint256"
        },
        {
          "name": "state",
          "type": "uint8"
        },
        {
          "name": "finishInfo",
          "type": "string"
        },
        {
          "name": "comfirm",
          "type": "bool"
        }
      ],
      "payable": false,
      "stateMutability": "view",
      "type": "function",
      "signature": "0xc64ebad9"
    },
    {
      "constant": true,
      "inputs": [
        {
          "name": "",
          "type": "uint256"
        }
      ],
      "name": "validTrade",
      "outputs": [
        {
          "name": "",
          "type": "bool"
        }
      ],
      "payable": false,
      "stateMutability": "view",
      "type": "function",
      "signature": "0xcb319593"
    },
    {
      "constant": true,
      "inputs": [],
      "name": "minPrice",
      "outputs": [
        {
          "name": "",
          "type": "uint256"
        }
      ],
      "payable": false,
      "stateMutability": "view",
      "type": "function",
      "signature": "0xe45be8eb"
    },
    {
      "inputs": [],
      "payable": false,
      "stateMutability": "nonpayable",
      "type": "constructor",
      "signature": "constructor"
    },
    {
      "anonymous": false,
      "inputs": [
        {
          "indexed": false,
          "name": "_id",
          "type": "uint256"
        },
        {
          "indexed": false,
          "name": "_state",
          "type": "uint8"
        },
        {
          "indexed": false,
          "name": "_price",
          "type": "uint256"
        },
        {
          "indexed": false,
          "name": "_success",
          "type": "bool"
        }
      ],
      "name": "StateTranslate",
      "type": "event",
      "signature": "0xaf576b98023e90caf6e5e8198b6efd4b6c17cea681f05b37105fec41a9607b7d"
    },
    {
      "constant": false,
      "inputs": [
        {
          "name": "title_",
          "type": "string"
        },
        {
          "name": "detail_",
          "type": "string"
        }
      ],
      "name": "createTrade",
      "outputs": [],
      "payable": true,
      "stateMutability": "payable",
      "type": "function",
      "signature": "0xe23b23f6"
    },
    {
      "constant": false,
      "inputs": [
        {
          "name": "id",
          "type": "uint256"
        }
      ],
      "name": "acceptTrade",
      "outputs": [],
      "payable": false,
      "stateMutability": "nonpayable",
      "type": "function",
      "signature": "0xecb9fec3"
    },
    {
      "constant": false,
      "inputs": [
        {
          "name": "id",
          "type": "uint256"
        }
      ],
      "name": "finishTrade",
      "outputs": [],
      "payable": false,
      "stateMutability": "nonpayable",
      "type": "function",
      "signature": "0xa9dd4631"
    },
    {
      "constant": false,
      "inputs": [
        {
          "name": "id",
          "type": "uint256"
        }
      ],
      "name": "comfirmTrade",
      "outputs": [],
      "payable": false,
      "stateMutability": "nonpayable",
      "type": "function",
      "signature": "0xbfff69aa"
    },
    {
      "constant": false,
      "inputs": [
        {
          "name": "id",
          "type": "uint256"
        }
      ],
      "name": "destoryTrade",
      "outputs": [],
      "payable": false,
      "stateMutability": "nonpayable",
      "type": "function",
      "signature": "0x576cca99"
    },
    {
      "constant": true,
      "inputs": [],
      "name": "showCount",
      "outputs": [
        {
          "name": "",
          "type": "uint256"
        }
      ],
      "payable": false,
      "stateMutability": "view",
      "type": "function",
      "signature": "0x5f0b8444"
    },
    {
      "constant": true,
      "inputs": [
        {
          "name": "id",
          "type": "uint256"
        }
      ],
      "name": "getTrade",
      "outputs": [
        {
          "name": "",
          "type": "string"
        },
        {
          "name": "",
          "type": "string"
        },
        {
          "name": "",
          "type": "uint256"
        },
        {
          "name": "",
          "type": "uint256"
        },
        {
          "name": "",
          "type": "address"
        },
        {
          "name": "",
          "type": "address"
        }
      ],
      "payable": false,
      "stateMutability": "view",
      "type": "function",
      "signature": "0x2db25e05"
    },
    {
      "constant": true,
      "inputs": [
        {
          "name": "id",
          "type": "uint256"
        }
      ],
      "name": "validId",
      "outputs": [
        {
          "name": "",
          "type": "bool"
        }
      ],
      "payable": false,
      "stateMutability": "view",
      "type": "function",
      "signature": "0x73106f57"
    },
    {
      "constant": false,
      "inputs": [],
      "name": "fund",
      "outputs": [],
      "payable": true,
      "stateMutability": "payable",
      "type": "function",
      "signature": "0xb60d4288"
    }
  ],
  "bytecode": "0x608060405234801561001057600080fd5b50600060048190555060006005819055506000600681905550336000806101000a81548173ffffffffffffffffffffffffffffffffffffffff021916908373ffffffffffffffffffffffffffffffffffffffff160217905550612422806100786000396000f3fe6080604052600436106100ca576000357c0100000000000000000000000000000000000000000000000000000000900480632db25e05146100cf578063576cca99146102635780635f0b84441461029e57806373106f57146102c95780638da5cb5b1461031c578063a9dd463114610373578063a9fce45e146103ae578063b60d4288146105ce578063bfff69aa146105d8578063c64ebad914610613578063cb31959314610833578063e23b23f614610886578063e45be8eb146109d8578063ecb9fec314610a03575b600080fd5b3480156100db57600080fd5b50610108600480360360208110156100f257600080fd5b8101908080359060200190929190505050610a3e565b6040518080602001806020018781526020018681526020018573ffffffffffffffffffffffffffffffffffffffff1673ffffffffffffffffffffffffffffffffffffffff1681526020018473ffffffffffffffffffffffffffffffffffffffff1673ffffffffffffffffffffffffffffffffffffffff168152602001838103835289818151815260200191508051906020019080838360005b838110156101bc5780820151818401526020810190506101a1565b50505050905090810190601f1680156101e95780820380516001836020036101000a031916815260200191505b50838103825288818151815260200191508051906020019080838360005b83811015610222578082015181840152602081019050610207565b50505050905090810190601f16801561024f5780820380516001836020036101000a031916815260200191505b509850505050505050505060405180910390f35b34801561026f57600080fd5b5061029c6004803603602081101561028657600080fd5b8101908080359060200190929190505050610cbb565b005b3480156102aa57600080fd5b506102b3611010565b6040518082815260200191505060405180910390f35b3480156102d557600080fd5b50610302600480360360208110156102ec57600080fd5b810190808035906020019092919050505061101a565b604051808215151515815260200191505060405180910390f35b34801561032857600080fd5b50610331611044565b604051808273ffffffffffffffffffffffffffffffffffffffff1673ffffffffffffffffffffffffffffffffffffffff16815260200191505060405180910390f35b34801561037f57600080fd5b506103ac6004803603602081101561039657600080fd5b8101908080359060200190929190505050611069565b005b3480156103ba57600080fd5b506103e7600480360360208110156103d157600080fd5b81019080803590602001909291905050506112f1565b604051808a73ffffffffffffffffffffffffffffffffffffffff1673ffffffffffffffffffffffffffffffffffffffff1681526020018973ffffffffffffffffffffffffffffffffffffffff1673ffffffffffffffffffffffffffffffffffffffff168152602001806020018060200188815260200187815260200186600481111561046f57fe5b60ff168152602001806020018515151515815260200184810384528b818151815260200191508051906020019080838360005b838110156104bd5780820151818401526020810190506104a2565b50505050905090810190601f1680156104ea5780820380516001836020036101000a031916815260200191505b5084810383528a818151815260200191508051906020019080838360005b83811015610523578082015181840152602081019050610508565b50505050905090810190601f1680156105505780820380516001836020036101000a031916815260200191505b50848103825286818151815260200191508051906020019080838360005b8381101561058957808201518184015260208101905061056e565b50505050905090810190601f1680156105b65780820380516001836020036101000a031916815260200191505b509c5050505050505050505050505060405180910390f35b6105d6611561565b005b3480156105e457600080fd5b50610611600480360360208110156105fb57600080fd5b8101908080359060200190929190505050611563565b005b34801561061f57600080fd5b5061064c6004803603602081101561063657600080fd5b81019080803590602001909291905050506118aa565b604051808a73ffffffffffffffffffffffffffffffffffffffff1673ffffffffffffffffffffffffffffffffffffffff1681526020018973ffffffffffffffffffffffffffffffffffffffff1673ffffffffffffffffffffffffffffffffffffffff16815260200180602001806020018881526020018781526020018660048111156106d457fe5b60ff168152602001806020018515151515815260200184810384528b818151815260200191508051906020019080838360005b83811015610722578082015181840152602081019050610707565b50505050905090810190601f16801561074f5780820380516001836020036101000a031916815260200191505b5084810383528a818151815260200191508051906020019080838360005b8381101561078857808201518184015260208101905061076d565b50505050905090810190601f1680156107b55780820380516001836020036101000a031916815260200191505b50848103825286818151815260200191508051906020019080838360005b838110156107ee5780820151818401526020810190506107d3565b50505050905090810190601f16801561081b5780820380516001836020036101000a031916815260200191505b509c5050505050505050505050505060405180910390f35b34801561083f57600080fd5b5061086c6004803603602081101561085657600080fd5b8101908080359060200190929190505050611b29565b604051808215151515815260200191505060405180910390f35b6109d66004803603604081101561089c57600080fd5b81019080803590602001906401000000008111156108b957600080fd5b8201836020820111156108cb57600080fd5b803590602001918460018302840111640100000000831117156108ed57600080fd5b91908080601f016020809104026020016040519081016040528093929190818152602001838380828437600081840152601f19601f8201169050808301925050505050505091929192908035906020019064010000000081111561095057600080fd5b82018360208201111561096257600080fd5b8035906020019184600183028401116401000000008311171561098457600080fd5b91908080601f016020809104026020016040519081016040528093929190818152602001838380828437600081840152601f19601f820116905080830192505050505050509192919290505050611b49565b005b3480156109e457600080fd5b506109ed611f7e565b6040518082815260200191505060405180910390f35b348015610a0f57600080fd5b50610a3c60048036036020811015610a2657600080fd5b8101908080359060200190929190505050611f84565b005b6060806000806000806001600088815260200190815260200160002060009054906101000a900460ff161515610adc576040517f08c379a000000000000000000000000000000000000000000000000000000000815260040180806020018281038252600a8152602001807f756e76616c69642069640000000000000000000000000000000000000000000081525060200191505060405180910390fd5b60006002600089815260200190815260200160002090506060816002018054600181600116156101000203166002900480601f016020809104026020016040519081016040528092919081815260200182805460018160011615610100020316600290048015610b8d5780601f10610b6257610100808354040283529160200191610b8d565b820191906000526020600020905b815481529060010190602001808311610b7057829003601f168201915b505050505090506060826003018054600181600116156101000203166002900480601f016020809104026020016040519081016040528092919081815260200182805460018160011615610100020316600290048015610c2e5780601f10610c0357610100808354040283529160200191610c2e565b820191906000526020600020905b815481529060010190602001808311610c1157829003601f168201915b5050505050905081818460060160009054906101000a900460ff166004811115610c5457fe5b85600401548660000160009054906101000a900473ffffffffffffffffffffffffffffffffffffffff168760010160009054906101000a900473ffffffffffffffffffffffffffffffffffffffff1698509850985098509850985050505091939550919395565b6001600082815260200190815260200160002060009054906101000a900460ff161515610d50576040517f08c379a000000000000000000000000000000000000000000000000000000000815260040180806020018281038252600a8152602001807f756e76616c69642069640000000000000000000000000000000000000000000081525060200191505060405180910390fd5b600060026000838152602001908152602001600020905060006004811115610d7457fe5b8160060160009054906101000a900460ff166004811115610d9157fe5b141515610e2c576040517f08c379a00000000000000000000000000000000000000000000000000000000081526004018080602001828103825260268152602001807f546865207374617465206f6620746865207472616465206973206e6f7420556e81526020017f616363657074000000000000000000000000000000000000000000000000000081525060400191505060405180910390fd5b8060000160009054906101000a900473ffffffffffffffffffffffffffffffffffffffff1673ffffffffffffffffffffffffffffffffffffffff163373ffffffffffffffffffffffffffffffffffffffff16141515610f19576040517f08c379a000000000000000000000000000000000000000000000000000000000815260040180806020018281038252602a8152602001807f5468652061646472657373206f6620746865207472616465206973206e6f742081526020017f7468652073656e6465720000000000000000000000000000000000000000000081525060400191505060405180910390fd5b6000809054906101000a900473ffffffffffffffffffffffffffffffffffffffff1673ffffffffffffffffffffffffffffffffffffffff166108fc60026000858152602001908152602001600020600401549081150290604051600060405180830381858888f19350505050158015610f96573d6000803e3d6000fd5b5060046002600084815260200190815260200160002060060160006101000a81548160ff02191690836004811115610fca57fe5b021790555060006001600084815260200190815260200160002060006101000a81548160ff02191690831515021790555060016004600082825403925050819055505050565b6000600554905090565b60006001600083815260200190815260200160002060009054906101000a900460ff169050919050565b6000809054906101000a900473ffffffffffffffffffffffffffffffffffffffff1681565b6001600082815260200190815260200160002060009054906101000a900460ff1615156110fe576040517f08c379a000000000000000000000000000000000000000000000000000000000815260040180806020018281038252600a8152602001807f756e76616c69642069640000000000000000000000000000000000000000000081525060200191505060405180910390fd5b60006002600083815260200190815260200160002090506001600481111561112257fe5b8160060160009054906101000a900460ff16600481111561113f57fe5b1415156111da576040517f08c379a00000000000000000000000000000000000000000000000000000000081526004018080602001828103825260268152602001807f546865207374617465206f6620746865207472616465206973206e6f7420556e81526020017f66696e697368000000000000000000000000000000000000000000000000000081525060400191505060405180910390fd5b8060010160009054906101000a900473ffffffffffffffffffffffffffffffffffffffff1673ffffffffffffffffffffffffffffffffffffffff163373ffffffffffffffffffffffffffffffffffffffff161415156112c7576040517f08c379a00000000000000000000000000000000000000000000000000000000081526004018080602001828103825260338152602001807f54686520726563697069656e7441646472657373206f6620746865207472616481526020017f65206973206e6f74207468652073656e6465720000000000000000000000000081525060400191505060405180910390fd5b60028160060160006101000a81548160ff021916908360048111156112e857fe5b02179055505050565b60026020528060005260406000206000915090508060000160009054906101000a900473ffffffffffffffffffffffffffffffffffffffff16908060010160009054906101000a900473ffffffffffffffffffffffffffffffffffffffff1690806002018054600181600116156101000203166002900480601f0160208091040260200160405190810160405280929190818152602001828054600181600116156101000203166002900480156113e95780601f106113be576101008083540402835291602001916113e9565b820191906000526020600020905b8154815290600101906020018083116113cc57829003601f168201915b505050505090806003018054600181600116156101000203166002900480601f0160208091040260200160405190810160405280929190818152602001828054600181600116156101000203166002900480156114875780601f1061145c57610100808354040283529160200191611487565b820191906000526020600020905b81548152906001019060200180831161146a57829003601f168201915b5050505050908060040154908060050154908060060160009054906101000a900460ff1690806007018054600181600116156101000203166002900480601f0160208091040260200160405190810160405280929190818152602001828054600181600116156101000203166002900480156115445780601f1061151957610100808354040283529160200191611544565b820191906000526020600020905b81548152906001019060200180831161152757829003601f168201915b5050505050908060080160009054906101000a900460ff16905089565b565b6001600082815260200190815260200160002060009054906101000a900460ff1615156115f8576040517f08c379a000000000000000000000000000000000000000000000000000000000815260040180806020018281038252600a8152602001807f756e76616c69642069640000000000000000000000000000000000000000000081525060200191505060405180910390fd5b60006002600083815260200190815260200160002090506002600481111561161c57fe5b8160060160009054906101000a900460ff16600481111561163957fe5b1415156116d4576040517f08c379a00000000000000000000000000000000000000000000000000000000081526004018080602001828103825260278152602001807f546865207374617465206f6620746865207472616465206973206e6f7420556e81526020017f636f6d6669726d0000000000000000000000000000000000000000000000000081525060400191505060405180910390fd5b8060000160009054906101000a900473ffffffffffffffffffffffffffffffffffffffff1673ffffffffffffffffffffffffffffffffffffffff163373ffffffffffffffffffffffffffffffffffffffff161415156117c1576040517f08c379a00000000000000000000000000000000000000000000000000000000081526004018080602001828103825260338152602001807f54686520696e69746961746f7241646472657373206f6620746865207472616481526020017f65206973206e6f74207468652073656e6465720000000000000000000000000081525060400191505060405180910390fd5b60016002600084815260200190815260200160002060080160006101000a81548160ff02191690831515021790555060036002600084815260200190815260200160002060060160006101000a81548160ff0219169083600481111561182357fe5b02179055506000809054906101000a900473ffffffffffffffffffffffffffffffffffffffff1673ffffffffffffffffffffffffffffffffffffffff166108fc60026000858152602001908152602001600020600401549081150290604051600060405180830381858888f193505050501580156118a5573d6000803e3d6000fd5b505050565b6003818154811015156118b957fe5b90600052602060002090600902016000915090508060000160009054906101000a900473ffffffffffffffffffffffffffffffffffffffff16908060010160009054906101000a900473ffffffffffffffffffffffffffffffffffffffff1690806002018054600181600116156101000203166002900480601f0160208091040260200160405190810160405280929190818152602001828054600181600116156101000203166002900480156119b15780601f10611986576101008083540402835291602001916119b1565b820191906000526020600020905b81548152906001019060200180831161199457829003601f168201915b505050505090806003018054600181600116156101000203166002900480601f016020809104026020016040519081016040528092919081815260200182805460018160011615610100020316600290048015611a4f5780601f10611a2457610100808354040283529160200191611a4f565b820191906000526020600020905b815481529060010190602001808311611a3257829003601f168201915b5050505050908060040154908060050154908060060160009054906101000a900460ff1690806007018054600181600116156101000203166002900480601f016020809104026020016040519081016040528092919081815260200182805460018160011615610100020316600290048015611b0c5780601f10611ae157610100808354040283529160200191611b0c565b820191906000526020600020905b815481529060010190602001808311611aef57829003601f168201915b5050505050908060080160009054906101000a900460ff16905089565b60016020528060005260406000206000915054906101000a900460ff1681565b60065434111515611bc2576040517f08c379a00000000000000000000000000000000000000000000000000000000081526004018080602001828103825260168152602001807f736d616c6c6572207468616e206d696e5072696365210000000000000000000081525060200191505060405180910390fd5b611bca6122cb565b610120604051908101604052803373ffffffffffffffffffffffffffffffffffffffff1681526020013373ffffffffffffffffffffffffffffffffffffffff168152602001848152602001838152602001348152602001600554815260200160006004811115611c3657fe5b8152602001602060405190810160405280600081525081526020016000151581525090506003819080600181540180825580915050906001820390600052602060002090600902016000909192909190915060008201518160000160006101000a81548173ffffffffffffffffffffffffffffffffffffffff021916908373ffffffffffffffffffffffffffffffffffffffff16021790555060208201518160010160006101000a81548173ffffffffffffffffffffffffffffffffffffffff021916908373ffffffffffffffffffffffffffffffffffffffff1602179055506040820151816002019080519060200190611d32929190612351565b506060820151816003019080519060200190611d4f929190612351565b506080820151816004015560a0820151816005015560c08201518160060160006101000a81548160ff02191690836004811115611d8857fe5b021790555060e0820151816007019080519060200190611da9929190612351565b506101008201518160080160006101000a81548160ff0219169083151502179055505050508060026000600554815260200190815260200160002060008201518160000160006101000a81548173ffffffffffffffffffffffffffffffffffffffff021916908373ffffffffffffffffffffffffffffffffffffffff16021790555060208201518160010160006101000a81548173ffffffffffffffffffffffffffffffffffffffff021916908373ffffffffffffffffffffffffffffffffffffffff1602179055506040820151816002019080519060200190611e8e929190612351565b506060820151816003019080519060200190611eab929190612351565b506080820151816004015560a0820151816005015560c08201518160060160006101000a81548160ff02191690836004811115611ee457fe5b021790555060e0820151816007019080519060200190611f05929190612351565b506101008201518160080160006101000a81548160ff0219169083151502179055509050506001806000600554815260200190815260200160002060006101000a81548160ff02191690831515021790555060016004600082825401925050819055506001600560008282540192505081905550505050565b60065481565b6001600082815260200190815260200160002060009054906101000a900460ff161515612019576040517f08c379a000000000000000000000000000000000000000000000000000000000815260040180806020018281038252600a8152602001807f756e76616c69642069640000000000000000000000000000000000000000000081525060200191505060405180910390fd5b60006002600083815260200190815260200160002090506000600481111561203d57fe5b8160060160009054906101000a900460ff16600481111561205a57fe5b1415156120f5576040517f08c379a00000000000000000000000000000000000000000000000000000000081526004018080602001828103825260268152602001807f546865207374617465206f6620746865207472616465206973206e6f7420556e81526020017f616363657074000000000000000000000000000000000000000000000000000081525060400191505060405180910390fd5b8060000160009054906101000a900473ffffffffffffffffffffffffffffffffffffffff1673ffffffffffffffffffffffffffffffffffffffff163373ffffffffffffffffffffffffffffffffffffffff16141515156121e3576040517f08c379a000000000000000000000000000000000000000000000000000000000815260040180806020018281038252602f8152602001807f54686520696e69746961746f7241646472657373206f6620746865207472616481526020017f65206973207468652073656e646572000000000000000000000000000000000081525060400191505060405180910390fd5b338160010160006101000a81548173ffffffffffffffffffffffffffffffffffffffff021916908373ffffffffffffffffffffffffffffffffffffffff16021790555060018160060160006101000a81548160ff0219169083600481111561224757fe5b02179055507faf576b98023e90caf6e5e8198b6efd4b6c17cea681f05b37105fec41a9607b7d81600501548260060160009054906101000a900460ff1683600401546001604051808581526020018460048111156122a157fe5b60ff1681526020018381526020018215151515815260200194505050505060405180910390a15050565b61012060405190810160405280600073ffffffffffffffffffffffffffffffffffffffff168152602001600073ffffffffffffffffffffffffffffffffffffffff168152602001606081526020016060815260200160008152602001600081526020016000600481111561233b57fe5b8152602001606081526020016000151581525090565b828054600181600116156101000203166002900490600052602060002090601f016020900481019282601f1061239257805160ff19168380011785556123c0565b828001600101855582156123c0579182015b828111156123bf5782518255916020019190600101906123a4565b5b5090506123cd91906123d1565b5090565b6123f391905b808211156123ef5760008160009055506001016123d7565b5090565b9056fea165627a7a723058207a6bfa873c5f1f9e80e2686a643df24f89ebd2ae937caeda8a27d0850204b2cd0029",
  "source": "pragma solidity ^0.5.1;\r\n\r\ncontract Trades{\r\n\r\n    enum tradeState {Unaccept, Unfinish, Uncomfirm, End, Destory}\r\n\r\n    event StateTranslate(uint _id, tradeState _state, uint _price,bool _success);\r\n\r\n    struct trade{\r\n        //\r\n        address initiatorAddress;\r\n        //\r\n        address recipientAddress;\r\n        //\r\n        string title;\r\n        //\r\n        string detail;\r\n        //\r\n        uint price;\r\n        //id\r\n        uint id;\r\n        //\r\n        tradeState state;\r\n        //\r\n        string finishInfo;\r\n        //\r\n        bool comfirm;\r\n    }\r\n\r\n    address payable public owner;\r\n    mapping (uint => bool) public validTrade;\r\n    mapping (uint => trade) public tradeReceived;\r\n    trade[] public TradePool;\r\n    uint validCount;\r\n    uint count;\r\n    uint public minPrice;\r\n\r\n    constructor() public {\r\n        validCount = 0;\r\n        count = 0;\r\n        minPrice = 0;\r\n        owner = msg.sender;\r\n    }\r\n\r\n    function createTrade(string memory title_, string memory detail_) payable public {\r\n        // if (msg.value < minPrice){\r\n        //     emit StateTranslate(count, tradeState.Unaccept, msg.value, false);\r\n        //     return;\r\n        // }\r\n        require(msg.value > minPrice, \"smaller than minPrice!\");\r\n\r\n        trade memory item = trade({\r\n            initiatorAddress: msg.sender,\r\n            recipientAddress: msg.sender,\r\n            title: title_,\r\n            detail: detail_,\r\n            price: msg.value,\r\n            id: count,\r\n            state : tradeState.Unaccept,\r\n            finishInfo: \"\",\r\n            comfirm: false\r\n        });\r\n        TradePool.push(item);\r\n        tradeReceived[count] = item;\r\n        validTrade[count] = true;\r\n        validCount += 1;\r\n        count += 1;\r\n        // emit StateTranslate(count-1, tradeReceived[count-1].state, tradeReceived[count-1].price, true);\r\n    }\r\n\r\n    function acceptTrade(uint id) public {\r\n        require(validTrade[id], \"unvalid id\");\r\n\r\n        trade storage tmptrade = tradeReceived[id];\r\n        require(tmptrade.state == tradeState.Unaccept, \"The state of the trade is not Unaccept\");\r\n        require(msg.sender != tmptrade.initiatorAddress, \"The initiatorAddress of the trade is the sender\");\r\n        \r\n        tmptrade.recipientAddress = msg.sender;\r\n        tmptrade.state = tradeState.Unfinish;\r\n        emit StateTranslate(tmptrade.id, tmptrade.state, tmptrade.price, true);\r\n    }\r\n\r\n    function finishTrade(uint id) public{\r\n        require(validTrade[id], \"unvalid id\");\r\n\r\n        trade storage tmptrade = tradeReceived[id];\r\n        require(tmptrade.state == tradeState.Unfinish, \"The state of the trade is not Unfinish\");\r\n        require(msg.sender == tmptrade.recipientAddress, \"The recipientAddress of the trade is not the sender\");\r\n        \r\n        tmptrade.state = tradeState.Uncomfirm;\r\n        // emit StateTranslate(tmptrade.id, tmptrade.state, tmptrade.price, true);\r\n    }\r\n\r\n    function comfirmTrade(uint id) public{\r\n        require(validTrade[id], \"unvalid id\");\r\n\r\n        trade storage tmptrade = tradeReceived[id];\r\n        require(tmptrade.state == tradeState.Uncomfirm, \"The state of the trade is not Uncomfirm\");\r\n        require(msg.sender == tmptrade.initiatorAddress, \"The initiatorAddress of the trade is not the sender\");\r\n        \r\n        tradeReceived[id].comfirm = true;\r\n        tradeReceived[id].state = tradeState.End;\r\n        owner.transfer(tradeReceived[id].price);\r\n        // emit StateTranslate(tmptrade.id, tmptrade.state, tmptrade.price, true);\r\n    }\r\n    \r\n    function destoryTrade(uint id) public{\r\n        require(validTrade[id], \"unvalid id\");\r\n        \r\n        trade storage tmptrade = tradeReceived[id];\r\n        require(tmptrade.state == tradeState.Unaccept, \"The state of the trade is not Unaccept\");\r\n        require(msg.sender == tmptrade.initiatorAddress, \"The address of the trade is not the sender\");\r\n\r\n        owner.transfer(tradeReceived[id].price);\r\n        tradeReceived[id].state = tradeState.Destory;\r\n        validTrade[id] = false;\r\n        validCount -= 1;\r\n    }\r\n\r\n    function showCount() view public returns (uint){\r\n        return count;\r\n    }\r\n\r\n    function getTrade(uint id) view public returns (string memory, string memory, uint, uint, address, address){\r\n        require(validTrade[id], \"unvalid id\");\r\n\r\n        trade storage tmptrade = tradeReceived[id];\r\n        string memory title_ = tmptrade.title;\r\n        string memory detail_ = tmptrade.detail;\r\n        return (title_, detail_, uint(tmptrade.state), tmptrade.price, tmptrade.initiatorAddress, tmptrade.recipientAddress);\r\n    }\r\n\r\n    function validId(uint id) view public returns (bool){\r\n        return validTrade[id];\r\n    } \r\n\r\n    function fund() external payable {}\r\n}\r\n",
  "sourcePath": "D:/gitRep/dapp/contracts/Trades.sol",
  "compiler": {
    "name": "solc",
    "version": "0.5.1+commit.c8a2cb62.Emscripten.clang"
  },
  "schemaVersion": "3.0.0-beta.2",
  "updatedAt": "2018-12-29T01:44:36.729Z",
  "devdoc": {
    "methods": {}
  },
  "userdoc": {
    "methods": {}
  }
}