{
  "contractName": "Trades",
  "abi": [
    {
      "constant": true,
      "inputs": [
        {
          "name": "",
          "type": "uint256"
        }
      ],
      "name": "tradeReceived",
      "outputs": [
        {
          "name": "initiatorAddress",
          "type": "address"
        },
        {
          "name": "recipientAddress",
          "type": "address"
        },
        {
          "name": "price",
          "type": "uint256"
        },
        {
          "name": "id",
          "type": "uint256"
        },
        {
          "name": "state",
          "type": "uint8"
        },
        {
          "name": "finishInfo",
          "type": "string"
        },
        {
          "name": "comfirm",
          "type": "bool"
        }
      ],
      "payable": false,
      "stateMutability": "view",
      "type": "function"
    },
    {
      "constant": true,
      "inputs": [
        {
          "name": "",
          "type": "uint256"
        }
      ],
      "name": "TradePool",
      "outputs": [
        {
          "name": "initiatorAddress",
          "type": "address"
        },
        {
          "name": "recipientAddress",
          "type": "address"
        },
        {
          "name": "price",
          "type": "uint256"
        },
        {
          "name": "id",
          "type": "uint256"
        },
        {
          "name": "state",
          "type": "uint8"
        },
        {
          "name": "finishInfo",
          "type": "string"
        },
        {
          "name": "comfirm",
          "type": "bool"
        }
      ],
      "payable": false,
      "stateMutability": "view",
      "type": "function"
    },
    {
      "constant": true,
      "inputs": [
        {
          "name": "",
          "type": "uint256"
        }
      ],
      "name": "validTrade",
      "outputs": [
        {
          "name": "",
          "type": "bool"
        }
      ],
      "payable": false,
      "stateMutability": "view",
      "type": "function"
    },
    {
      "constant": true,
      "inputs": [],
      "name": "minPrice",
      "outputs": [
        {
          "name": "",
          "type": "uint256"
        }
      ],
      "payable": false,
      "stateMutability": "view",
      "type": "function"
    },
    {
      "inputs": [],
      "payable": false,
      "stateMutability": "nonpayable",
      "type": "constructor"
    },
    {
      "constant": false,
      "inputs": [
        {
          "name": "title_",
          "type": "bytes32[]"
        },
        {
          "name": "detail_",
          "type": "bytes32[]"
        }
      ],
      "name": "createTrade",
      "outputs": [
        {
          "name": "",
          "type": "bool"
        }
      ],
      "payable": true,
      "stateMutability": "payable",
      "type": "function"
    },
    {
      "constant": false,
      "inputs": [
        {
          "name": "id",
          "type": "uint256"
        }
      ],
      "name": "acceptTrade",
      "outputs": [
        {
          "name": "success",
          "type": "bool"
        }
      ],
      "payable": false,
      "stateMutability": "nonpayable",
      "type": "function"
    },
    {
      "constant": false,
      "inputs": [
        {
          "name": "id",
          "type": "uint256"
        },
        {
          "name": "info",
          "type": "string"
        }
      ],
      "name": "finishTrade",
      "outputs": [
        {
          "name": "success",
          "type": "bool"
        }
      ],
      "payable": false,
      "stateMutability": "nonpayable",
      "type": "function"
    },
    {
      "constant": false,
      "inputs": [
        {
          "name": "id",
          "type": "uint256"
        }
      ],
      "name": "comfirmTrade",
      "outputs": [
        {
          "name": "success",
          "type": "bool"
        }
      ],
      "payable": false,
      "stateMutability": "nonpayable",
      "type": "function"
    },
    {
      "constant": true,
      "inputs": [],
      "name": "showCount",
      "outputs": [
        {
          "name": "Count",
          "type": "uint256"
        }
      ],
      "payable": false,
      "stateMutability": "view",
      "type": "function"
    }
  ],
  "bytecode": "0x608060405234801561001057600080fd5b50600060038190555060006004819055506112a9806100306000396000f300608060405260043610610099576000357c0100000000000000000000000000000000000000000000000000000000900463ffffffff16806353f8226b1461009e5780635f0b8444146101295780637cb0358f14610154578063a9fce45e14610208578063bfff69aa14610342578063c64ebad914610387578063cb319593146104c1578063e45be8eb14610506578063ecb9fec314610531575b600080fd5b3480156100aa57600080fd5b5061010f60048036038101908080359060200190929190803590602001908201803590602001908080601f0160208091040260200160405190810160405280939291908181526020018383808284378201915050505050509192919290505050610576565b604051808215151515815260200191505060405180910390f35b34801561013557600080fd5b5061013e610699565b6040518082815260200191505060405180910390f35b6101ee60048036038101908080359060200190820180359060200190808060200260200160405190810160405280939291908181526020018383602002808284378201915050505050509192919290803590602001908201803590602001908080602002602001604051908101604052809392919081815260200183836020028082843782019150505050505091929192905050506106a3565b604051808215151515815260200191505060405180910390f35b34801561021457600080fd5b5061023360048036038101908080359060200190929190505050610a6b565b604051808873ffffffffffffffffffffffffffffffffffffffff1673ffffffffffffffffffffffffffffffffffffffff1681526020018773ffffffffffffffffffffffffffffffffffffffff1673ffffffffffffffffffffffffffffffffffffffff1681526020018681526020018581526020018460038111156102b357fe5b60ff1681526020018060200183151515158152602001828103825284818151815260200191508051906020019080838360005b838110156103015780820151818401526020810190506102e6565b50505050905090810190601f16801561032e5780820380516001836020036101000a031916815260200191505b509850505050505050505060405180910390f35b34801561034e57600080fd5b5061036d60048036038101908080359060200190929190505050610b9f565b604051808215151515815260200191505060405180910390f35b34801561039357600080fd5b506103b260048036038101908080359060200190929190505050610da6565b604051808873ffffffffffffffffffffffffffffffffffffffff1673ffffffffffffffffffffffffffffffffffffffff1681526020018773ffffffffffffffffffffffffffffffffffffffff1673ffffffffffffffffffffffffffffffffffffffff16815260200186815260200185815260200184600381111561043257fe5b60ff1681526020018060200183151515158152602001828103825284818151815260200191508051906020019080838360005b83811015610480578082015181840152602081019050610465565b50505050905090810190601f1680156104ad5780820380516001836020036101000a031916815260200191505b509850505050505050505060405180910390f35b3480156104cd57600080fd5b506104ec60048036038101908080359060200190929190505050610ee9565b604051808215151515815260200191505060405180910390f35b34801561051257600080fd5b5061051b610f09565b6040518082815260200191505060405180910390f35b34801561053d57600080fd5b5061055c60048036038101908080359060200190929190505050610f0f565b604051808215151515815260200191505060405180910390f35b60008060008085815260200190815260200160002060009054906101000a900460ff1615156105a457600080fd5b600160008581526020019081526020016000209050600160038111156105c657fe5b8160060160009054906101000a900460ff1660038111156105e357fe5b14158061064057503373ffffffffffffffffffffffffffffffffffffffff168160010160009054906101000a900473ffffffffffffffffffffffffffffffffffffffff1673ffffffffffffffffffffffffffffffffffffffff1614155b1561064e5760009150610692565b8281600701908051906020019061066692919061105a565b5060028160060160006101000a81548160ff0219169083600381111561068857fe5b0217905550600191505b5092915050565b6000600354905090565b60006106ad6110da565b6004543410156106c05760009150610a64565b610120604051908101604052803373ffffffffffffffffffffffffffffffffffffffff168152602001600073ffffffffffffffffffffffffffffffffffffffff16815260200185815260200184815260200134815260200160035481526020016000600381111561072d57fe5b8152602001602060405190810160405280600081525081526020016000151581525090506002819080600181540180825580915050906001820390600052602060002090600902016000909192909190915060008201518160000160006101000a81548173ffffffffffffffffffffffffffffffffffffffff021916908373ffffffffffffffffffffffffffffffffffffffff16021790555060208201518160010160006101000a81548173ffffffffffffffffffffffffffffffffffffffff021916908373ffffffffffffffffffffffffffffffffffffffff1602179055506040820151816002019080519060200190610829929190611160565b506060820151816003019080519060200190610846929190611160565b506080820151816004015560a0820151816005015560c08201518160060160006101000a81548160ff0219169083600381111561087f57fe5b021790555060e08201518160070190805190602001906108a09291906111b3565b506101008201518160080160006101000a81548160ff0219169083151502179055505050508060016000600354815260200190815260200160002060008201518160000160006101000a81548173ffffffffffffffffffffffffffffffffffffffff021916908373ffffffffffffffffffffffffffffffffffffffff16021790555060208201518160010160006101000a81548173ffffffffffffffffffffffffffffffffffffffff021916908373ffffffffffffffffffffffffffffffffffffffff1602179055506040820151816002019080519060200190610985929190611160565b5060608201518160030190805190602001906109a2929190611160565b506080820151816004015560a0820151816005015560c08201518160060160006101000a81548160ff021916908360038111156109db57fe5b021790555060e08201518160070190805190602001906109fc9291906111b3565b506101008201518160080160006101000a81548160ff0219169083151502179055509050506001600080600354815260200190815260200160002060006101000a81548160ff0219169083151502179055506001600360008282540192505081905550600191505b5092915050565b60016020528060005260406000206000915090508060000160009054906101000a900473ffffffffffffffffffffffffffffffffffffffff16908060010160009054906101000a900473ffffffffffffffffffffffffffffffffffffffff16908060040154908060050154908060060160009054906101000a900460ff1690806007018054600181600116156101000203166002900480601f016020809104026020016040519081016040528092919081815260200182805460018160011615610100020316600290048015610b825780601f10610b5757610100808354040283529160200191610b82565b820191906000526020600020905b815481529060010190602001808311610b6557829003601f168201915b5050505050908060080160009054906101000a900460ff16905087565b60008060008084815260200190815260200160002060009054906101000a900460ff161515610bcd57600080fd5b60016000848152602001908152602001600020905060026003811115610bef57fe5b8160060160009054906101000a900460ff166003811115610c0c57fe5b141580610c6957508060000160009054906101000a900473ffffffffffffffffffffffffffffffffffffffff1673ffffffffffffffffffffffffffffffffffffffff163373ffffffffffffffffffffffffffffffffffffffff1614155b15610c775760009150610da0565b600180600085815260200190815260200160002060080160006101000a81548160ff02191690831515021790555060036001600085815260200190815260200160002060060160006101000a81548160ff02191690836003811115610cd857fe5b02179055506001600084815260200190815260200160002060010160009054906101000a900473ffffffffffffffffffffffffffffffffffffffff1673ffffffffffffffffffffffffffffffffffffffff166108fc60016000868152602001908152602001600020600401549081150290604051600060405180830381858888f19350505050158015610d6f573d6000803e3d6000fd5b50600080600085815260200190815260200160002060006101000a81548160ff021916908315150217905550600191505b50919050565b600281815481101515610db557fe5b90600052602060002090600902016000915090508060000160009054906101000a900473ffffffffffffffffffffffffffffffffffffffff16908060010160009054906101000a900473ffffffffffffffffffffffffffffffffffffffff16908060040154908060050154908060060160009054906101000a900460ff1690806007018054600181600116156101000203166002900480601f016020809104026020016040519081016040528092919081815260200182805460018160011615610100020316600290048015610ecc5780601f10610ea157610100808354040283529160200191610ecc565b820191906000526020600020905b815481529060010190602001808311610eaf57829003601f168201915b5050505050908060080160009054906101000a900460ff16905087565b60006020528060005260406000206000915054906101000a900460ff1681565b60045481565b60008060008084815260200190815260200160002060009054906101000a900460ff161515610f3d57600080fd5b60016000848152602001908152602001600020905060006003811115610f5f57fe5b8160060160009054906101000a900460ff166003811115610f7c57fe5b141580610fd857503373ffffffffffffffffffffffffffffffffffffffff168160000160009054906101000a900473ffffffffffffffffffffffffffffffffffffffff1673ffffffffffffffffffffffffffffffffffffffff16145b15610fe65760009150611054565b338160010160006101000a81548173ffffffffffffffffffffffffffffffffffffffff021916908373ffffffffffffffffffffffffffffffffffffffff16021790555060018160060160006101000a81548160ff0219169083600381111561104a57fe5b0217905550600191505b50919050565b828054600181600116156101000203166002900490600052602060002090601f016020900481019282601f1061109b57805160ff19168380011785556110c9565b828001600101855582156110c9579182015b828111156110c85782518255916020019190600101906110ad565b5b5090506110d69190611233565b5090565b61012060405190810160405280600073ffffffffffffffffffffffffffffffffffffffff168152602001600073ffffffffffffffffffffffffffffffffffffffff168152602001606081526020016060815260200160008152602001600081526020016000600381111561114a57fe5b8152602001606081526020016000151581525090565b8280548282559060005260206000209081019282156111a2579160200282015b828111156111a1578251829060001916905591602001919060010190611180565b5b5090506111af9190611258565b5090565b828054600181600116156101000203166002900490600052602060002090601f016020900481019282601f106111f457805160ff1916838001178555611222565b82800160010185558215611222579182015b82811115611221578251825591602001919060010190611206565b5b50905061122f9190611233565b5090565b61125591905b80821115611251576000816000905550600101611239565b5090565b90565b61127a91905b8082111561127657600081600090555060010161125e565b5090565b905600a165627a7a7230582040cb776253247b0e5443ed6f80272264d565840ccde5e4ad6523b637cdc37fe90029",
  "source": "pragma solidity ^0.4.18;\r\n\r\ncontract Trades{\r\n\r\n    enum tradeState {Unaccept, Unfinish, Uncomfirm, End}\r\n\r\n    struct trade{\r\n        address initiatorAddress;\r\n        address recipientAddress;\r\n        bytes32[] title;\r\n        bytes32[] detail;\r\n        uint price;\r\n        uint id;\r\n        tradeState state;\r\n        string finishInfo;\r\n        bool comfirm;\r\n    }\r\n\r\n    mapping (uint => bool) public validTrade;\r\n    mapping (uint => trade) public tradeReceived;\r\n    trade[] public TradePool;\r\n    uint count;\r\n    uint public minPrice;\r\n\r\n    constructor() public {\r\n        count = 0;\r\n        minPrice = 0;\r\n    }\r\n\r\n    function createTrade(bytes32[] title_, bytes32[] detail_) payable public returns (bool) {\r\n        if (msg.value < minPrice){\r\n            return false;\r\n        }\r\n        trade memory item = trade({\r\n            initiatorAddress: msg.sender,\r\n            recipientAddress: 0,\r\n            title: title_,\r\n            detail: detail_,\r\n            price: msg.value,\r\n            id: count,\r\n            state : tradeState.Unaccept,\r\n            finishInfo: \"\",\r\n            comfirm: false\r\n        });\r\n        TradePool.push(item);\r\n        tradeReceived[count] = item;\r\n        validTrade[count] = true;\r\n        count += 1;\r\n        return true;\r\n    }\r\n\r\n    function acceptTrade(uint id) public returns (bool success) {\r\n        require(validTrade[id]);\r\n\r\n        trade storage tmptrade = tradeReceived[id];\r\n        if (tmptrade.state != tradeState.Unaccept || tmptrade.initiatorAddress == msg.sender){\r\n            return false;\r\n        }\r\n        tmptrade.recipientAddress = msg.sender;\r\n        tmptrade.state = tradeState.Unfinish;\r\n        return true;\r\n    }\r\n\r\n    function finishTrade(uint id, string info) public returns (bool success){\r\n        require(validTrade[id]);\r\n\r\n        trade storage tmptrade = tradeReceived[id];\r\n        if (tmptrade.state != tradeState.Unfinish || tmptrade.recipientAddress != msg.sender){\r\n            return false;\r\n        }\r\n        tmptrade.finishInfo = info;\r\n        tmptrade.state = tradeState.Uncomfirm;\r\n        return true;\r\n    }\r\n\r\n    function comfirmTrade(uint id) public returns (bool success){\r\n        require(validTrade[id]);\r\n\r\n        trade storage tmptrade = tradeReceived[id];\r\n        if(tmptrade.state != tradeState.Uncomfirm || msg.sender != tmptrade.initiatorAddress){\r\n            return false;\r\n        }\r\n        tradeReceived[id].comfirm = true;\r\n        tradeReceived[id].state = tradeState.End;\r\n        tradeReceived[id].recipientAddress.transfer(tradeReceived[id].price);\r\n        validTrade[id] = false;\r\n        return true;\r\n    }\r\n    \r\n    function showCount() view public returns (uint Count){\r\n        return count;\r\n    }\r\n\r\n}",
  "sourcePath": "D:\\gitRep\\dapp\\contracts\\Trades.sol",
  "compiler": {
    "name": "solc",
    "version": "0.4.24+commit.e67f0147.Emscripten.clang"
  },
  "schemaVersion": "2.0.1",
  "updatedAt": "2018-11-19T15:18:40.989Z"
}