{
  "contractName": "Trades",
  "abi": [
    {
      "constant": true,
      "inputs": [],
      "name": "owner",
      "outputs": [
        {
          "name": "",
          "type": "address"
        }
      ],
      "payable": false,
      "stateMutability": "view",
      "type": "function"
    },
    {
      "constant": true,
      "inputs": [
        {
          "name": "",
          "type": "uint256"
        }
      ],
      "name": "tradeReceived",
      "outputs": [
        {
          "name": "initiatorAddress",
          "type": "address"
        },
        {
          "name": "recipientAddress",
          "type": "address"
        },
        {
          "name": "title",
          "type": "string"
        },
        {
          "name": "detail",
          "type": "string"
        },
        {
          "name": "price",
          "type": "uint256"
        },
        {
          "name": "id",
          "type": "uint256"
        },
        {
          "name": "state",
          "type": "uint8"
        },
        {
          "name": "finishInfo",
          "type": "string"
        },
        {
          "name": "comfirm",
          "type": "bool"
        }
      ],
      "payable": false,
      "stateMutability": "view",
      "type": "function"
    },
    {
      "constant": true,
      "inputs": [
        {
          "name": "",
          "type": "uint256"
        }
      ],
      "name": "TradePool",
      "outputs": [
        {
          "name": "initiatorAddress",
          "type": "address"
        },
        {
          "name": "recipientAddress",
          "type": "address"
        },
        {
          "name": "title",
          "type": "string"
        },
        {
          "name": "detail",
          "type": "string"
        },
        {
          "name": "price",
          "type": "uint256"
        },
        {
          "name": "id",
          "type": "uint256"
        },
        {
          "name": "state",
          "type": "uint8"
        },
        {
          "name": "finishInfo",
          "type": "string"
        },
        {
          "name": "comfirm",
          "type": "bool"
        }
      ],
      "payable": false,
      "stateMutability": "view",
      "type": "function"
    },
    {
      "constant": true,
      "inputs": [
        {
          "name": "",
          "type": "uint256"
        }
      ],
      "name": "validTrade",
      "outputs": [
        {
          "name": "",
          "type": "bool"
        }
      ],
      "payable": false,
      "stateMutability": "view",
      "type": "function"
    },
    {
      "constant": true,
      "inputs": [],
      "name": "minPrice",
      "outputs": [
        {
          "name": "",
          "type": "uint256"
        }
      ],
      "payable": false,
      "stateMutability": "view",
      "type": "function"
    },
    {
      "inputs": [],
      "payable": false,
      "stateMutability": "nonpayable",
      "type": "constructor"
    },
    {
      "anonymous": false,
      "inputs": [
        {
          "indexed": false,
          "name": "_id",
          "type": "uint256"
        },
        {
          "indexed": false,
          "name": "_state",
          "type": "uint8"
        },
        {
          "indexed": false,
          "name": "_price",
          "type": "uint256"
        },
        {
          "indexed": false,
          "name": "_success",
          "type": "bool"
        }
      ],
      "name": "StateTranslate",
      "type": "event"
    },
    {
      "constant": false,
      "inputs": [
        {
          "name": "title_",
          "type": "string"
        },
        {
          "name": "detail_",
          "type": "string"
        }
      ],
      "name": "createTrade",
      "outputs": [],
      "payable": true,
      "stateMutability": "payable",
      "type": "function"
    },
    {
      "constant": false,
      "inputs": [
        {
          "name": "id",
          "type": "uint256"
        }
      ],
      "name": "acceptTrade",
      "outputs": [],
      "payable": false,
      "stateMutability": "nonpayable",
      "type": "function"
    },
    {
      "constant": false,
      "inputs": [
        {
          "name": "id",
          "type": "uint256"
        },
        {
          "name": "info",
          "type": "string"
        }
      ],
      "name": "finishTrade",
      "outputs": [],
      "payable": false,
      "stateMutability": "nonpayable",
      "type": "function"
    },
    {
      "constant": false,
      "inputs": [
        {
          "name": "id",
          "type": "uint256"
        }
      ],
      "name": "comfirmTrade",
      "outputs": [],
      "payable": false,
      "stateMutability": "nonpayable",
      "type": "function"
    },
    {
      "constant": false,
      "inputs": [
        {
          "name": "id",
          "type": "uint256"
        }
      ],
      "name": "destoryTrade",
      "outputs": [],
      "payable": false,
      "stateMutability": "nonpayable",
      "type": "function"
    },
    {
      "constant": true,
      "inputs": [],
      "name": "showCount",
      "outputs": [
        {
          "name": "Count",
          "type": "uint256"
        }
      ],
      "payable": false,
      "stateMutability": "view",
      "type": "function"
    },
    {
      "constant": false,
      "inputs": [],
      "name": "fund",
      "outputs": [],
      "payable": true,
      "stateMutability": "payable",
      "type": "function"
    }
  ],
  "bytecode": "0x608060405234801561001057600080fd5b5060006004819055506000600581905550336000806101000a81548173ffffffffffffffffffffffffffffffffffffffff021916908373ffffffffffffffffffffffffffffffffffffffff160217905550611ece806100706000396000f3006080604052600436106100ba576000357c0100000000000000000000000000000000000000000000000000000000900463ffffffff16806353f8226b146100bf578063576cca99146101325780635f0b84441461015f5780638da5cb5b1461018a578063a9fce45e146101e1578063b60d4288146103f3578063bfff69aa146103fd578063c64ebad91461042a578063cb3195931461063c578063e23b23f614610681578063e45be8eb14610723578063ecb9fec31461074e575b600080fd5b3480156100cb57600080fd5b5061013060048036038101908080359060200190929190803590602001908201803590602001908080601f016020809104026020016040519081016040528093929190818152602001838380828437820191505050505050919291929050505061077b565b005b34801561013e57600080fd5b5061015d600480360381019080803590602001909291905050506109f3565b005b34801561016b57600080fd5b50610174610cfd565b6040518082815260200191505060405180910390f35b34801561019657600080fd5b5061019f610d07565b604051808273ffffffffffffffffffffffffffffffffffffffff1673ffffffffffffffffffffffffffffffffffffffff16815260200191505060405180910390f35b3480156101ed57600080fd5b5061020c60048036038101908080359060200190929190505050610d2c565b604051808a73ffffffffffffffffffffffffffffffffffffffff1673ffffffffffffffffffffffffffffffffffffffff1681526020018973ffffffffffffffffffffffffffffffffffffffff1673ffffffffffffffffffffffffffffffffffffffff168152602001806020018060200188815260200187815260200186600481111561029457fe5b60ff168152602001806020018515151515815260200184810384528b818151815260200191508051906020019080838360005b838110156102e25780820151818401526020810190506102c7565b50505050905090810190601f16801561030f5780820380516001836020036101000a031916815260200191505b5084810383528a818151815260200191508051906020019080838360005b8381101561034857808201518184015260208101905061032d565b50505050905090810190601f1680156103755780820380516001836020036101000a031916815260200191505b50848103825286818151815260200191508051906020019080838360005b838110156103ae578082015181840152602081019050610393565b50505050905090810190601f1680156103db5780820380516001836020036101000a031916815260200191505b509c5050505050505050505050505060405180910390f35b6103fb610f9c565b005b34801561040957600080fd5b5061042860048036038101908080359060200190929190505050610f9e565b005b34801561043657600080fd5b50610455600480360381019080803590602001909291905050506112e7565b604051808a73ffffffffffffffffffffffffffffffffffffffff1673ffffffffffffffffffffffffffffffffffffffff1681526020018973ffffffffffffffffffffffffffffffffffffffff1673ffffffffffffffffffffffffffffffffffffffff16815260200180602001806020018881526020018781526020018660048111156104dd57fe5b60ff168152602001806020018515151515815260200184810384528b818151815260200191508051906020019080838360005b8381101561052b578082015181840152602081019050610510565b50505050905090810190601f1680156105585780820380516001836020036101000a031916815260200191505b5084810383528a818151815260200191508051906020019080838360005b83811015610591578082015181840152602081019050610576565b50505050905090810190601f1680156105be5780820380516001836020036101000a031916815260200191505b50848103825286818151815260200191508051906020019080838360005b838110156105f75780820151818401526020810190506105dc565b50505050905090810190601f1680156106245780820380516001836020036101000a031916815260200191505b509c5050505050505050505050505060405180910390f35b34801561064857600080fd5b5061066760048036038101908080359060200190929190505050611566565b604051808215151515815260200191505060405180910390f35b610721600480360381019080803590602001908201803590602001908080601f0160208091040260200160405190810160405280939291908181526020018383808284378201915050505050509192919290803590602001908201803590602001908080601f0160208091040260200160405190810160405280939291908181526020018383808284378201915050505050509192919290505050611586565b005b34801561072f57600080fd5b50610738611a51565b6040518082815260200191505060405180910390f35b34801561075a57600080fd5b5061077960048036038101908080359060200190929190505050611a57565b005b60006001600084815260200190815260200160002060009054906101000a900460ff161515610812576040517f08c379a000000000000000000000000000000000000000000000000000000000815260040180806020018281038252600a8152602001807f756e76616c69642069640000000000000000000000000000000000000000000081525060200191505060405180910390fd5b6002600084815260200190815260200160002090506001600481111561083457fe5b8160060160009054906101000a900460ff16600481111561085157fe5b1415806108ae57503373ffffffffffffffffffffffffffffffffffffffff168160010160009054906101000a900473ffffffffffffffffffffffffffffffffffffffff1673ffffffffffffffffffffffffffffffffffffffff1614155b15610933577faf576b98023e90caf6e5e8198b6efd4b6c17cea681f05b37105fec41a9607b7d81600501548260060160009054906101000a900460ff16836004015460006040518085815260200184600481111561090857fe5b60ff1681526020018381526020018215151515815260200194505050505060405180910390a16109ee565b8181600701908051906020019061094b929190611cf7565b5060028160060160006101000a81548160ff0219169083600481111561096d57fe5b02179055507faf576b98023e90caf6e5e8198b6efd4b6c17cea681f05b37105fec41a9607b7d81600501548260060160009054906101000a900460ff1683600401546001604051808581526020018460048111156109c757fe5b60ff1681526020018381526020018215151515815260200194505050505060405180910390a15b505050565b60006001600083815260200190815260200160002060009054906101000a900460ff161515610a8a576040517f08c379a000000000000000000000000000000000000000000000000000000000815260040180806020018281038252600a8152602001807f756e76616c69642069640000000000000000000000000000000000000000000081525060200191505060405180910390fd5b60026000838152602001908152602001600020905060006004811115610aac57fe5b8160060160009054906101000a900460ff166004811115610ac957fe5b141580610b2657508060000160009054906101000a900473ffffffffffffffffffffffffffffffffffffffff1673ffffffffffffffffffffffffffffffffffffffff163373ffffffffffffffffffffffffffffffffffffffff1614155b15610b9b577faf576b98023e90caf6e5e8198b6efd4b6c17cea681f05b37105fec41a9607b7d816005015460048360040154600060405180858152602001846004811115610b7057fe5b60ff1681526020018381526020018215151515815260200194505050505060405180910390a1610cf9565b6000809054906101000a900473ffffffffffffffffffffffffffffffffffffffff1673ffffffffffffffffffffffffffffffffffffffff166108fc60026000858152602001908152602001600020600401549081150290604051600060405180830381858888f19350505050158015610c18573d6000803e3d6000fd5b5060046002600084815260200190815260200160002060060160006101000a81548160ff02191690836004811115610c4c57fe5b021790555060006001600084815260200190815260200160002060006101000a81548160ff0219169083151502179055507faf576b98023e90caf6e5e8198b6efd4b6c17cea681f05b37105fec41a9607b7d81600501548260060160009054906101000a900460ff168360040154600160405180858152602001846004811115610cd257fe5b60ff1681526020018381526020018215151515815260200194505050505060405180910390a15b5050565b6000600454905090565b6000809054906101000a900473ffffffffffffffffffffffffffffffffffffffff1681565b60026020528060005260406000206000915090508060000160009054906101000a900473ffffffffffffffffffffffffffffffffffffffff16908060010160009054906101000a900473ffffffffffffffffffffffffffffffffffffffff1690806002018054600181600116156101000203166002900480601f016020809104026020016040519081016040528092919081815260200182805460018160011615610100020316600290048015610e245780601f10610df957610100808354040283529160200191610e24565b820191906000526020600020905b815481529060010190602001808311610e0757829003601f168201915b505050505090806003018054600181600116156101000203166002900480601f016020809104026020016040519081016040528092919081815260200182805460018160011615610100020316600290048015610ec25780601f10610e9757610100808354040283529160200191610ec2565b820191906000526020600020905b815481529060010190602001808311610ea557829003601f168201915b5050505050908060040154908060050154908060060160009054906101000a900460ff1690806007018054600181600116156101000203166002900480601f016020809104026020016040519081016040528092919081815260200182805460018160011615610100020316600290048015610f7f5780601f10610f5457610100808354040283529160200191610f7f565b820191906000526020600020905b815481529060010190602001808311610f6257829003601f168201915b5050505050908060080160009054906101000a900460ff16905089565b565b60006001600083815260200190815260200160002060009054906101000a900460ff161515611035576040517f08c379a000000000000000000000000000000000000000000000000000000000815260040180806020018281038252600a8152602001807f756e76616c69642069640000000000000000000000000000000000000000000081525060200191505060405180910390fd5b6002600083815260200190815260200160002090506002600481111561105757fe5b8160060160009054906101000a900460ff16600481111561107457fe5b1415806110d157508060000160009054906101000a900473ffffffffffffffffffffffffffffffffffffffff1673ffffffffffffffffffffffffffffffffffffffff163373ffffffffffffffffffffffffffffffffffffffff1614155b15611156577faf576b98023e90caf6e5e8198b6efd4b6c17cea681f05b37105fec41a9607b7d81600501548260060160009054906101000a900460ff16836004015460006040518085815260200184600481111561112b57fe5b60ff1681526020018381526020018215151515815260200194505050505060405180910390a16112e3565b60016002600084815260200190815260200160002060080160006101000a81548160ff02191690831515021790555060036002600084815260200190815260200160002060060160006101000a81548160ff021916908360048111156111b857fe5b02179055506000809054906101000a900473ffffffffffffffffffffffffffffffffffffffff1673ffffffffffffffffffffffffffffffffffffffff166108fc60026000858152602001908152602001600020600401549081150290604051600060405180830381858888f1935050505015801561123a573d6000803e3d6000fd5b5060006001600084815260200190815260200160002060006101000a81548160ff0219169083151502179055507faf576b98023e90caf6e5e8198b6efd4b6c17cea681f05b37105fec41a9607b7d81600501548260060160009054906101000a900460ff1683600401546001604051808581526020018460048111156112bc57fe5b60ff1681526020018381526020018215151515815260200194505050505060405180910390a15b5050565b6003818154811015156112f657fe5b90600052602060002090600902016000915090508060000160009054906101000a900473ffffffffffffffffffffffffffffffffffffffff16908060010160009054906101000a900473ffffffffffffffffffffffffffffffffffffffff1690806002018054600181600116156101000203166002900480601f0160208091040260200160405190810160405280929190818152602001828054600181600116156101000203166002900480156113ee5780601f106113c3576101008083540402835291602001916113ee565b820191906000526020600020905b8154815290600101906020018083116113d157829003601f168201915b505050505090806003018054600181600116156101000203166002900480601f01602080910402602001604051908101604052809291908181526020018280546001816001161561010002031660029004801561148c5780601f106114615761010080835404028352916020019161148c565b820191906000526020600020905b81548152906001019060200180831161146f57829003601f168201915b5050505050908060040154908060050154908060060160009054906101000a900460ff1690806007018054600181600116156101000203166002900480601f0160208091040260200160405190810160405280929190818152602001828054600181600116156101000203166002900480156115495780601f1061151e57610100808354040283529160200191611549565b820191906000526020600020905b81548152906001019060200180831161152c57829003601f168201915b5050505050908060080160009054906101000a900460ff16905089565b60016020528060005260406000206000915054906101000a900460ff1681565b61158e611d77565b600554341015611602577faf576b98023e90caf6e5e8198b6efd4b6c17cea681f05b37105fec41a9607b7d6004546000346000604051808581526020018460048111156115d757fe5b60ff1681526020018381526020018215151515815260200194505050505060405180910390a1611a4c565b610120604051908101604052803373ffffffffffffffffffffffffffffffffffffffff168152602001600073ffffffffffffffffffffffffffffffffffffffff16815260200184815260200183815260200134815260200160045481526020016000600481111561166f57fe5b8152602001602060405190810160405280600081525081526020016000151581525090506003819080600181540180825580915050906001820390600052602060002090600902016000909192909190915060008201518160000160006101000a81548173ffffffffffffffffffffffffffffffffffffffff021916908373ffffffffffffffffffffffffffffffffffffffff16021790555060208201518160010160006101000a81548173ffffffffffffffffffffffffffffffffffffffff021916908373ffffffffffffffffffffffffffffffffffffffff160217905550604082015181600201908051906020019061176b929190611dfd565b506060820151816003019080519060200190611788929190611dfd565b506080820151816004015560a0820151816005015560c08201518160060160006101000a81548160ff021916908360048111156117c157fe5b021790555060e08201518160070190805190602001906117e2929190611dfd565b506101008201518160080160006101000a81548160ff0219169083151502179055505050508060026000600454815260200190815260200160002060008201518160000160006101000a81548173ffffffffffffffffffffffffffffffffffffffff021916908373ffffffffffffffffffffffffffffffffffffffff16021790555060208201518160010160006101000a81548173ffffffffffffffffffffffffffffffffffffffff021916908373ffffffffffffffffffffffffffffffffffffffff16021790555060408201518160020190805190602001906118c7929190611dfd565b5060608201518160030190805190602001906118e4929190611dfd565b506080820151816004015560a0820151816005015560c08201518160060160006101000a81548160ff0219169083600481111561191d57fe5b021790555060e082015181600701908051906020019061193e929190611dfd565b506101008201518160080160006101000a81548160ff0219169083151502179055509050506001806000600454815260200190815260200160002060006101000a81548160ff02191690831515021790555060016004600082825401925050819055507faf576b98023e90caf6e5e8198b6efd4b6c17cea681f05b37105fec41a9607b7d60016004540360026000600160045403815260200190815260200160002060060160009054906101000a900460ff1660026000600160045403815260200190815260200160002060040154600160405180858152602001846004811115611a2557fe5b60ff1681526020018381526020018215151515815260200194505050505060405180910390a15b505050565b60055481565b60006001600083815260200190815260200160002060009054906101000a900460ff161515611aee576040517f08c379a000000000000000000000000000000000000000000000000000000000815260040180806020018281038252600a8152602001807f756e76616c69642069640000000000000000000000000000000000000000000081525060200191505060405180910390fd5b60026000838152602001908152602001600020905060006004811115611b1057fe5b8160060160009054906101000a900460ff166004811115611b2d57fe5b141580611b8957503373ffffffffffffffffffffffffffffffffffffffff168160000160009054906101000a900473ffffffffffffffffffffffffffffffffffffffff1673ffffffffffffffffffffffffffffffffffffffff16145b15611c0e577faf576b98023e90caf6e5e8198b6efd4b6c17cea681f05b37105fec41a9607b7d81600501548260060160009054906101000a900460ff168360040154600060405180858152602001846004811115611be357fe5b60ff1681526020018381526020018215151515815260200194505050505060405180910390a1611cf3565b338160010160006101000a81548173ffffffffffffffffffffffffffffffffffffffff021916908373ffffffffffffffffffffffffffffffffffffffff16021790555060018160060160006101000a81548160ff02191690836004811115611c7257fe5b02179055507faf576b98023e90caf6e5e8198b6efd4b6c17cea681f05b37105fec41a9607b7d81600501548260060160009054906101000a900460ff168360040154600160405180858152602001846004811115611ccc57fe5b60ff1681526020018381526020018215151515815260200194505050505060405180910390a15b5050565b828054600181600116156101000203166002900490600052602060002090601f016020900481019282601f10611d3857805160ff1916838001178555611d66565b82800160010185558215611d66579182015b82811115611d65578251825591602001919060010190611d4a565b5b509050611d739190611e7d565b5090565b61012060405190810160405280600073ffffffffffffffffffffffffffffffffffffffff168152602001600073ffffffffffffffffffffffffffffffffffffffff1681526020016060815260200160608152602001600081526020016000815260200160006004811115611de757fe5b8152602001606081526020016000151581525090565b828054600181600116156101000203166002900490600052602060002090601f016020900481019282601f10611e3e57805160ff1916838001178555611e6c565b82800160010185558215611e6c579182015b82811115611e6b578251825591602001919060010190611e50565b5b509050611e799190611e7d565b5090565b611e9f91905b80821115611e9b576000816000905550600101611e83565b5090565b905600a165627a7a72305820ceb32a88be8b596a306896b29556949214d5e2e0617d623c3bdab21f177337710029",
  "source": "pragma solidity ^0.4.18;\r\n\r\ncontract Trades{\r\n\r\n    enum tradeState {Unaccept, Unfinish, Uncomfirm, End, Destory}\r\n\r\n    event StateTranslate(uint _id, tradeState _state, uint _price,bool _success);\r\n\r\n    struct trade{\r\n        address initiatorAddress;\r\n        address recipientAddress;\r\n        string title;\r\n        string detail;\r\n        uint price;\r\n        uint id;\r\n        tradeState state;\r\n        string finishInfo;\r\n        bool comfirm;\r\n    }\r\n\r\n    address public owner;\r\n    mapping (uint => bool) public validTrade;\r\n    mapping (uint => trade) public tradeReceived;\r\n    trade[] public TradePool;\r\n    uint count;\r\n    uint public minPrice;\r\n\r\n    constructor() public {\r\n        count = 0;\r\n        minPrice = 0;\r\n        owner = msg.sender;\r\n    }\r\n\r\n    function createTrade(string title_, string detail_) payable public {\r\n        if (msg.value < minPrice){\r\n            emit StateTranslate(count, tradeState.Unaccept, msg.value, false);\r\n            return;\r\n        }\r\n        trade memory item = trade({\r\n            initiatorAddress: msg.sender,\r\n            recipientAddress: 0,\r\n            title: title_,\r\n            detail: detail_,\r\n            price: msg.value,\r\n            id: count,\r\n            state : tradeState.Unaccept,\r\n            finishInfo: \"\",\r\n            comfirm: false\r\n        });\r\n        TradePool.push(item);\r\n        tradeReceived[count] = item;\r\n        validTrade[count] = true;\r\n        count += 1;\r\n        emit StateTranslate(count-1, tradeReceived[count-1].state, tradeReceived[count-1].price, true);\r\n    }\r\n\r\n    function acceptTrade(uint id) public {\r\n        require(validTrade[id], \"unvalid id\");\r\n\r\n        trade storage tmptrade = tradeReceived[id];\r\n        if (tmptrade.state != tradeState.Unaccept || tmptrade.initiatorAddress == msg.sender){\r\n            emit StateTranslate(tmptrade.id, tmptrade.state, tmptrade.price, false);\r\n            return;\r\n        }\r\n        tmptrade.recipientAddress = msg.sender;\r\n        tmptrade.state = tradeState.Unfinish;\r\n        emit StateTranslate(tmptrade.id, tmptrade.state, tmptrade.price, true);\r\n    }\r\n\r\n    function finishTrade(uint id, string info) public{\r\n        require(validTrade[id], \"unvalid id\");\r\n\r\n        trade storage tmptrade = tradeReceived[id];\r\n        if (tmptrade.state != tradeState.Unfinish || tmptrade.recipientAddress != msg.sender){\r\n            emit StateTranslate(tmptrade.id, tmptrade.state, tmptrade.price, false);\r\n            return;\r\n        }\r\n        tmptrade.finishInfo = info;\r\n        tmptrade.state = tradeState.Uncomfirm;\r\n        emit StateTranslate(tmptrade.id, tmptrade.state, tmptrade.price, true);\r\n    }\r\n\r\n    function comfirmTrade(uint id) public{\r\n        require(validTrade[id], \"unvalid id\");\r\n\r\n        trade storage tmptrade = tradeReceived[id];\r\n        if(tmptrade.state != tradeState.Uncomfirm || msg.sender != tmptrade.initiatorAddress){\r\n            emit StateTranslate(tmptrade.id, tmptrade.state, tmptrade.price, false);\r\n            return;\r\n        }\r\n        tradeReceived[id].comfirm = true;\r\n        tradeReceived[id].state = tradeState.End;\r\n        owner.transfer(tradeReceived[id].price);\r\n        validTrade[id] = false;\r\n        emit StateTranslate(tmptrade.id, tmptrade.state, tmptrade.price, true);\r\n    }\r\n    \r\n    function destoryTrade(uint id) public{\r\n        require(validTrade[id], \"unvalid id\");\r\n\r\n        trade storage tmptrade = tradeReceived[id];\r\n        if(tmptrade.state != tradeState.Unaccept || msg.sender != tmptrade.initiatorAddress){\r\n            emit StateTranslate(tmptrade.id, tradeState.Destory, tmptrade.price, false);\r\n            return;\r\n        }\r\n        owner.transfer(tradeReceived[id].price);\r\n        tradeReceived[id].state = tradeState.Destory;\r\n        validTrade[id] = false;\r\n        emit StateTranslate(tmptrade.id, tmptrade.state, tmptrade.price, true);\r\n    }\r\n\r\n    function showCount() view public returns (uint Count){\r\n        return count;\r\n    }\r\n\r\n    function fund() external payable {}\r\n}\r\n",
  "sourcePath": "D:\\gitRep\\dapp\\contracts\\Trades.sol",
  "compiler": {
    "name": "solc",
    "version": "0.4.24+commit.e67f0147.Emscripten.clang"
  },
  "schemaVersion": "2.0.1",
  "updatedAt": "2018-11-21T16:51:49.502Z"
}