{
  "contractName": "Trades",
  "abi": [
    {
      "constant": true,
      "inputs": [
        {
          "name": "",
          "type": "uint256"
        }
      ],
      "name": "tradeReceived",
      "outputs": [
        {
          "name": "initiatorAddress",
          "type": "address"
        },
        {
          "name": "recipientAddress",
          "type": "address"
        },
        {
          "name": "title",
          "type": "string"
        },
        {
          "name": "detail",
          "type": "string"
        },
        {
          "name": "price",
          "type": "uint256"
        },
        {
          "name": "id",
          "type": "uint256"
        },
        {
          "name": "state",
          "type": "uint8"
        },
        {
          "name": "finishInfo",
          "type": "string"
        },
        {
          "name": "comfirm",
          "type": "bool"
        }
      ],
      "payable": false,
      "stateMutability": "view",
      "type": "function"
    },
    {
      "constant": true,
      "inputs": [
        {
          "name": "",
          "type": "uint256"
        }
      ],
      "name": "TradePool",
      "outputs": [
        {
          "name": "initiatorAddress",
          "type": "address"
        },
        {
          "name": "recipientAddress",
          "type": "address"
        },
        {
          "name": "title",
          "type": "string"
        },
        {
          "name": "detail",
          "type": "string"
        },
        {
          "name": "price",
          "type": "uint256"
        },
        {
          "name": "id",
          "type": "uint256"
        },
        {
          "name": "state",
          "type": "uint8"
        },
        {
          "name": "finishInfo",
          "type": "string"
        },
        {
          "name": "comfirm",
          "type": "bool"
        }
      ],
      "payable": false,
      "stateMutability": "view",
      "type": "function"
    },
    {
      "constant": true,
      "inputs": [
        {
          "name": "",
          "type": "uint256"
        }
      ],
      "name": "validTrade",
      "outputs": [
        {
          "name": "",
          "type": "bool"
        }
      ],
      "payable": false,
      "stateMutability": "view",
      "type": "function"
    },
    {
      "inputs": [],
      "payable": false,
      "stateMutability": "nonpayable",
      "type": "constructor"
    },
    {
      "constant": false,
      "inputs": [
        {
          "name": "title_",
          "type": "string"
        },
        {
          "name": "detail_",
          "type": "string"
        }
      ],
      "name": "createTrade",
      "outputs": [
        {
          "name": "Info",
          "type": "string"
        }
      ],
      "payable": true,
      "stateMutability": "payable",
      "type": "function"
    },
    {
      "constant": false,
      "inputs": [
        {
          "name": "id",
          "type": "uint256"
        }
      ],
      "name": "acceptTrade",
      "outputs": [
        {
          "name": "success",
          "type": "bool"
        }
      ],
      "payable": false,
      "stateMutability": "nonpayable",
      "type": "function"
    },
    {
      "constant": false,
      "inputs": [
        {
          "name": "id",
          "type": "uint256"
        },
        {
          "name": "info",
          "type": "string"
        }
      ],
      "name": "finishTrade",
      "outputs": [
        {
          "name": "success",
          "type": "bool"
        }
      ],
      "payable": false,
      "stateMutability": "nonpayable",
      "type": "function"
    },
    {
      "constant": false,
      "inputs": [
        {
          "name": "id",
          "type": "uint256"
        }
      ],
      "name": "comfirmTrade",
      "outputs": [
        {
          "name": "success",
          "type": "bool"
        }
      ],
      "payable": false,
      "stateMutability": "nonpayable",
      "type": "function"
    },
    {
      "constant": false,
      "inputs": [],
      "name": "showCount",
      "outputs": [
        {
          "name": "Count",
          "type": "uint256"
        }
      ],
      "payable": false,
      "stateMutability": "nonpayable",
      "type": "function"
    }
  ],
  "bytecode": "0x608060405234801561001057600080fd5b50600060038190555060006004819055506116ec806100306000396000f30060806040526004361061008e576000357c0100000000000000000000000000000000000000000000000000000000900463ffffffff16806353f8226b146100935780635f0b84441461011e578063a9fce45e14610149578063bfff69aa1461035b578063c64ebad9146103a0578063cb319593146105b2578063e23b23f6146105f7578063ecb9fec314610712575b600080fd5b34801561009f57600080fd5b5061010460048036038101908080359060200190929190803590602001908201803590602001908080601f0160208091040260200160405190810160405280939291908181526020018383808284378201915050505050509192919290505050610757565b604051808215151515815260200191505060405180910390f35b34801561012a57600080fd5b5061013361087a565b6040518082815260200191505060405180910390f35b34801561015557600080fd5b5061017460048036038101908080359060200190929190505050610884565b604051808a73ffffffffffffffffffffffffffffffffffffffff1673ffffffffffffffffffffffffffffffffffffffff1681526020018973ffffffffffffffffffffffffffffffffffffffff1673ffffffffffffffffffffffffffffffffffffffff16815260200180602001806020018881526020018781526020018660038111156101fc57fe5b60ff168152602001806020018515151515815260200184810384528b818151815260200191508051906020019080838360005b8381101561024a57808201518184015260208101905061022f565b50505050905090810190601f1680156102775780820380516001836020036101000a031916815260200191505b5084810383528a818151815260200191508051906020019080838360005b838110156102b0578082015181840152602081019050610295565b50505050905090810190601f1680156102dd5780820380516001836020036101000a031916815260200191505b50848103825286818151815260200191508051906020019080838360005b838110156103165780820151818401526020810190506102fb565b50505050905090810190601f1680156103435780820380516001836020036101000a031916815260200191505b509c5050505050505050505050505060405180910390f35b34801561036757600080fd5b5061038660048036038101908080359060200190929190505050610af4565b604051808215151515815260200191505060405180910390f35b3480156103ac57600080fd5b506103cb60048036038101908080359060200190929190505050610cfb565b604051808a73ffffffffffffffffffffffffffffffffffffffff1673ffffffffffffffffffffffffffffffffffffffff1681526020018973ffffffffffffffffffffffffffffffffffffffff1673ffffffffffffffffffffffffffffffffffffffff168152602001806020018060200188815260200187815260200186600381111561045357fe5b60ff168152602001806020018515151515815260200184810384528b818151815260200191508051906020019080838360005b838110156104a1578082015181840152602081019050610486565b50505050905090810190601f1680156104ce5780820380516001836020036101000a031916815260200191505b5084810383528a818151815260200191508051906020019080838360005b838110156105075780820151818401526020810190506104ec565b50505050905090810190601f1680156105345780820380516001836020036101000a031916815260200191505b50848103825286818151815260200191508051906020019080838360005b8381101561056d578082015181840152602081019050610552565b50505050905090810190601f16801561059a5780820380516001836020036101000a031916815260200191505b509c5050505050505050505050505060405180910390f35b3480156105be57600080fd5b506105dd60048036038101908080359060200190929190505050610f7a565b604051808215151515815260200191505060405180910390f35b610697600480360381019080803590602001908201803590602001908080601f0160208091040260200160405190810160405280939291908181526020018383808284378201915050505050509192919290803590602001908201803590602001908080601f0160208091040260200160405190810160405280939291908181526020018383808284378201915050505050509192919290505050610f9a565b6040518080602001828103825283818151815260200191508051906020019080838360005b838110156106d75780820151818401526020810190506106bc565b50505050905090810190601f1680156107045780820380516001836020036101000a031916815260200191505b509250505060405180910390f35b34801561071e57600080fd5b5061073d600480360381019080803590602001909291905050506113ca565b604051808215151515815260200191505060405180910390f35b60008060008085815260200190815260200160002060009054906101000a900460ff16151561078557600080fd5b600160008581526020019081526020016000209050600160038111156107a757fe5b8160060160009054906101000a900460ff1660038111156107c457fe5b14158061082157503373ffffffffffffffffffffffffffffffffffffffff168160010160009054906101000a900473ffffffffffffffffffffffffffffffffffffffff1673ffffffffffffffffffffffffffffffffffffffff1614155b1561082f5760009150610873565b82816007019080519060200190610847929190611515565b5060028160060160006101000a81548160ff0219169083600381111561086957fe5b0217905550600191505b5092915050565b6000600354905090565b60016020528060005260406000206000915090508060000160009054906101000a900473ffffffffffffffffffffffffffffffffffffffff16908060010160009054906101000a900473ffffffffffffffffffffffffffffffffffffffff1690806002018054600181600116156101000203166002900480601f01602080910402602001604051908101604052809291908181526020018280546001816001161561010002031660029004801561097c5780601f106109515761010080835404028352916020019161097c565b820191906000526020600020905b81548152906001019060200180831161095f57829003601f168201915b505050505090806003018054600181600116156101000203166002900480601f016020809104026020016040519081016040528092919081815260200182805460018160011615610100020316600290048015610a1a5780601f106109ef57610100808354040283529160200191610a1a565b820191906000526020600020905b8154815290600101906020018083116109fd57829003601f168201915b5050505050908060040154908060050154908060060160009054906101000a900460ff1690806007018054600181600116156101000203166002900480601f016020809104026020016040519081016040528092919081815260200182805460018160011615610100020316600290048015610ad75780601f10610aac57610100808354040283529160200191610ad7565b820191906000526020600020905b815481529060010190602001808311610aba57829003601f168201915b5050505050908060080160009054906101000a900460ff16905089565b60008060008084815260200190815260200160002060009054906101000a900460ff161515610b2257600080fd5b60016000848152602001908152602001600020905060026003811115610b4457fe5b8160060160009054906101000a900460ff166003811115610b6157fe5b141580610bbe57508060000160009054906101000a900473ffffffffffffffffffffffffffffffffffffffff1673ffffffffffffffffffffffffffffffffffffffff163373ffffffffffffffffffffffffffffffffffffffff1614155b15610bcc5760009150610cf5565b600180600085815260200190815260200160002060080160006101000a81548160ff02191690831515021790555060036001600085815260200190815260200160002060060160006101000a81548160ff02191690836003811115610c2d57fe5b02179055506001600084815260200190815260200160002060010160009054906101000a900473ffffffffffffffffffffffffffffffffffffffff1673ffffffffffffffffffffffffffffffffffffffff166108fc60016000868152602001908152602001600020600401549081150290604051600060405180830381858888f19350505050158015610cc4573d6000803e3d6000fd5b50600080600085815260200190815260200160002060006101000a81548160ff021916908315150217905550600191505b50919050565b600281815481101515610d0a57fe5b90600052602060002090600902016000915090508060000160009054906101000a900473ffffffffffffffffffffffffffffffffffffffff16908060010160009054906101000a900473ffffffffffffffffffffffffffffffffffffffff1690806002018054600181600116156101000203166002900480601f016020809104026020016040519081016040528092919081815260200182805460018160011615610100020316600290048015610e025780601f10610dd757610100808354040283529160200191610e02565b820191906000526020600020905b815481529060010190602001808311610de557829003601f168201915b505050505090806003018054600181600116156101000203166002900480601f016020809104026020016040519081016040528092919081815260200182805460018160011615610100020316600290048015610ea05780601f10610e7557610100808354040283529160200191610ea0565b820191906000526020600020905b815481529060010190602001808311610e8357829003601f168201915b5050505050908060040154908060050154908060060160009054906101000a900460ff1690806007018054600181600116156101000203166002900480601f016020809104026020016040519081016040528092919081815260200182805460018160011615610100020316600290048015610f5d5780601f10610f3257610100808354040283529160200191610f5d565b820191906000526020600020905b815481529060010190602001808311610f4057829003601f168201915b5050505050908060080160009054906101000a900460ff16905089565b60006020528060005260406000206000915054906101000a900460ff1681565b6060610fa4611595565b600454341015610feb576040805190810160405280600581526020017f66616c736500000000000000000000000000000000000000000000000000000081525091506113c3565b610120604051908101604052803373ffffffffffffffffffffffffffffffffffffffff168152602001600073ffffffffffffffffffffffffffffffffffffffff16815260200185815260200184815260200134815260200160035481526020016000600381111561105857fe5b8152602001602060405190810160405280600081525081526020016000151581525090506002819080600181540180825580915050906001820390600052602060002090600902016000909192909190915060008201518160000160006101000a81548173ffffffffffffffffffffffffffffffffffffffff021916908373ffffffffffffffffffffffffffffffffffffffff16021790555060208201518160010160006101000a81548173ffffffffffffffffffffffffffffffffffffffff021916908373ffffffffffffffffffffffffffffffffffffffff160217905550604082015181600201908051906020019061115492919061161b565b50606082015181600301908051906020019061117192919061161b565b506080820151816004015560a0820151816005015560c08201518160060160006101000a81548160ff021916908360038111156111aa57fe5b021790555060e08201518160070190805190602001906111cb92919061161b565b506101008201518160080160006101000a81548160ff0219169083151502179055505050508060016000600354815260200190815260200160002060008201518160000160006101000a81548173ffffffffffffffffffffffffffffffffffffffff021916908373ffffffffffffffffffffffffffffffffffffffff16021790555060208201518160010160006101000a81548173ffffffffffffffffffffffffffffffffffffffff021916908373ffffffffffffffffffffffffffffffffffffffff16021790555060408201518160020190805190602001906112b092919061161b565b5060608201518160030190805190602001906112cd92919061161b565b506080820151816004015560a0820151816005015560c08201518160060160006101000a81548160ff0219169083600381111561130657fe5b021790555060e082015181600701908051906020019061132792919061161b565b506101008201518160080160006101000a81548160ff0219169083151502179055509050506001600080600354815260200190815260200160002060006101000a81548160ff02191690831515021790555060016003600082825401925050819055506040805190810160405280601a81526020017f637265617465207472616465207375636365737366756c6c792100000000000081525091505b5092915050565b60008060008084815260200190815260200160002060009054906101000a900460ff1615156113f857600080fd5b6001600084815260200190815260200160002090506000600381111561141a57fe5b8160060160009054906101000a900460ff16600381111561143757fe5b14158061149357503373ffffffffffffffffffffffffffffffffffffffff168160000160009054906101000a900473ffffffffffffffffffffffffffffffffffffffff1673ffffffffffffffffffffffffffffffffffffffff16145b156114a1576000915061150f565b338160010160006101000a81548173ffffffffffffffffffffffffffffffffffffffff021916908373ffffffffffffffffffffffffffffffffffffffff16021790555060018160060160006101000a81548160ff0219169083600381111561150557fe5b0217905550600191505b50919050565b828054600181600116156101000203166002900490600052602060002090601f016020900481019282601f1061155657805160ff1916838001178555611584565b82800160010185558215611584579182015b82811115611583578251825591602001919060010190611568565b5b509050611591919061169b565b5090565b61012060405190810160405280600073ffffffffffffffffffffffffffffffffffffffff168152602001600073ffffffffffffffffffffffffffffffffffffffff168152602001606081526020016060815260200160008152602001600081526020016000600381111561160557fe5b8152602001606081526020016000151581525090565b828054600181600116156101000203166002900490600052602060002090601f016020900481019282601f1061165c57805160ff191683800117855561168a565b8280016001018555821561168a579182015b8281111561168957825182559160200191906001019061166e565b5b509050611697919061169b565b5090565b6116bd91905b808211156116b95760008160009055506001016116a1565b5090565b905600a165627a7a7230582010ed2b7e35269fcd81edaea394a88e6080bf4ccfed1777a41b067b46053f5c620029",
  "source": "pragma solidity ^0.4.18;\r\n\r\n\r\ncontract Trades{\r\n\r\n    enum tradeState {Unaccept, Unfinish, Uncomfirm, End}\r\n\r\n    struct trade{\r\n        address initiatorAddress;\r\n        address recipientAddress;\r\n        string title;\r\n        string detail;\r\n        uint price;\r\n        uint id;\r\n        tradeState state;\r\n        string finishInfo;\r\n        bool comfirm;\r\n    }\r\n\r\n    mapping (uint => bool) public validTrade;\r\n    mapping (uint => trade) public tradeReceived;\r\n    trade[] public TradePool;\r\n    uint count;\r\n    uint minPrice;\r\n\r\n    constructor() public {\r\n        count = 0;\r\n        minPrice = 0;\r\n    }\r\n\r\n    function createTrade(string title_, string detail_) payable public returns (string Info) {\r\n        if (msg.value < minPrice){\r\n            return \"false\";\r\n        }\r\n        trade memory item = trade({\r\n            initiatorAddress: msg.sender,\r\n            recipientAddress: 0,\r\n            title: title_,\r\n            detail: detail_,\r\n            price: msg.value,\r\n            id: count,\r\n            state : tradeState.Unaccept,\r\n            finishInfo: \"\",\r\n            comfirm: false\r\n        });\r\n        TradePool.push(item);\r\n        tradeReceived[count] = item;\r\n        validTrade[count] = true;\r\n        count += 1;\r\n        return \"create trade successfully!\";\r\n    }\r\n\r\n    function acceptTrade(uint id) public returns (bool success) {\r\n        require(validTrade[id]);\r\n\r\n        trade storage tmptrade = tradeReceived[id];\r\n        if (tmptrade.state != tradeState.Unaccept || tmptrade.initiatorAddress == msg.sender){\r\n            return false;\r\n        }\r\n        tmptrade.recipientAddress = msg.sender;\r\n        tmptrade.state = tradeState.Unfinish;\r\n        return true;\r\n    }\r\n\r\n    function finishTrade(uint id, string info) public returns (bool success){\r\n        require(validTrade[id]);\r\n\r\n        trade storage tmptrade = tradeReceived[id];\r\n        if (tmptrade.state != tradeState.Unfinish || tmptrade.recipientAddress != msg.sender){\r\n            return false;\r\n        }\r\n        tmptrade.finishInfo = info;\r\n        tmptrade.state = tradeState.Uncomfirm;\r\n        return true;\r\n    }\r\n\r\n    function comfirmTrade(uint id) public returns (bool success){\r\n        require(validTrade[id]);\r\n\r\n        trade storage tmptrade = tradeReceived[id];\r\n        if(tmptrade.state != tradeState.Uncomfirm || msg.sender != tmptrade.initiatorAddress){\r\n            return false;\r\n        }\r\n        tradeReceived[id].comfirm = true;\r\n        tradeReceived[id].state = tradeState.End;\r\n        tradeReceived[id].recipientAddress.transfer(tradeReceived[id].price);\r\n        validTrade[id] = false;\r\n        return true;\r\n    }\r\n    \r\n    function showCount() public returns (uint Count){\r\n        return count;\r\n    }\r\n\r\n}",
  "sourcePath": "D:\\gitRep\\dapp\\contracts\\Trades.sol",
  "compiler": {
    "name": "solc",
    "version": "0.4.24+commit.e67f0147.Emscripten.clang"
  },
  "schemaVersion": "2.0.1",
  "updatedAt": "2018-11-08T04:57:41.968Z"
}