{
  "contractName": "Trades",
  "abi": [
    {
      "constant": true,
      "inputs": [],
      "name": "owner",
      "outputs": [
        {
          "name": "",
          "type": "address"
        }
      ],
      "payable": false,
      "stateMutability": "view",
      "type": "function",
      "signature": "0x8da5cb5b"
    },
    {
      "constant": true,
      "inputs": [
        {
          "name": "",
          "type": "uint256"
        }
      ],
      "name": "tradeReceived",
      "outputs": [
        {
          "name": "initiatorAddress",
          "type": "address"
        },
        {
          "name": "recipientAddress",
          "type": "address"
        },
        {
          "name": "title",
          "type": "string"
        },
        {
          "name": "detail",
          "type": "string"
        },
        {
          "name": "price",
          "type": "uint256"
        },
        {
          "name": "id",
          "type": "uint256"
        },
        {
          "name": "state",
          "type": "uint8"
        },
        {
          "name": "finishInfo",
          "type": "string"
        },
        {
          "name": "comfirm",
          "type": "bool"
        }
      ],
      "payable": false,
      "stateMutability": "view",
      "type": "function",
      "signature": "0xa9fce45e"
    },
    {
      "constant": true,
      "inputs": [
        {
          "name": "",
          "type": "uint256"
        }
      ],
      "name": "TradePool",
      "outputs": [
        {
          "name": "initiatorAddress",
          "type": "address"
        },
        {
          "name": "recipientAddress",
          "type": "address"
        },
        {
          "name": "title",
          "type": "string"
        },
        {
          "name": "detail",
          "type": "string"
        },
        {
          "name": "price",
          "type": "uint256"
        },
        {
          "name": "id",
          "type": "uint256"
        },
        {
          "name": "state",
          "type": "uint8"
        },
        {
          "name": "finishInfo",
          "type": "string"
        },
        {
          "name": "comfirm",
          "type": "bool"
        }
      ],
      "payable": false,
      "stateMutability": "view",
      "type": "function",
      "signature": "0xc64ebad9"
    },
    {
      "constant": true,
      "inputs": [
        {
          "name": "",
          "type": "uint256"
        }
      ],
      "name": "validTrade",
      "outputs": [
        {
          "name": "",
          "type": "bool"
        }
      ],
      "payable": false,
      "stateMutability": "view",
      "type": "function",
      "signature": "0xcb319593"
    },
    {
      "constant": true,
      "inputs": [],
      "name": "minPrice",
      "outputs": [
        {
          "name": "",
          "type": "uint256"
        }
      ],
      "payable": false,
      "stateMutability": "view",
      "type": "function",
      "signature": "0xe45be8eb"
    },
    {
      "inputs": [],
      "payable": false,
      "stateMutability": "nonpayable",
      "type": "constructor",
      "signature": "constructor"
    },
    {
      "anonymous": false,
      "inputs": [
        {
          "indexed": false,
          "name": "_id",
          "type": "uint256"
        },
        {
          "indexed": false,
          "name": "_state",
          "type": "uint8"
        },
        {
          "indexed": false,
          "name": "_price",
          "type": "uint256"
        },
        {
          "indexed": false,
          "name": "_success",
          "type": "bool"
        }
      ],
      "name": "StateTranslate",
      "type": "event",
      "signature": "0xaf576b98023e90caf6e5e8198b6efd4b6c17cea681f05b37105fec41a9607b7d"
    },
    {
      "constant": false,
      "inputs": [
        {
          "name": "title_",
          "type": "string"
        },
        {
          "name": "detail_",
          "type": "string"
        }
      ],
      "name": "createTrade",
      "outputs": [],
      "payable": true,
      "stateMutability": "payable",
      "type": "function",
      "signature": "0xe23b23f6"
    },
    {
      "constant": false,
      "inputs": [
        {
          "name": "id",
          "type": "uint256"
        }
      ],
      "name": "acceptTrade",
      "outputs": [],
      "payable": false,
      "stateMutability": "nonpayable",
      "type": "function",
      "signature": "0xecb9fec3"
    },
    {
      "constant": false,
      "inputs": [
        {
          "name": "id",
          "type": "uint256"
        },
        {
          "name": "info",
          "type": "string"
        }
      ],
      "name": "finishTrade",
      "outputs": [],
      "payable": false,
      "stateMutability": "nonpayable",
      "type": "function",
      "signature": "0x53f8226b"
    },
    {
      "constant": false,
      "inputs": [
        {
          "name": "id",
          "type": "uint256"
        }
      ],
      "name": "comfirmTrade",
      "outputs": [],
      "payable": false,
      "stateMutability": "nonpayable",
      "type": "function",
      "signature": "0xbfff69aa"
    },
    {
      "constant": false,
      "inputs": [
        {
          "name": "id",
          "type": "uint256"
        }
      ],
      "name": "destoryTrade",
      "outputs": [],
      "payable": false,
      "stateMutability": "nonpayable",
      "type": "function",
      "signature": "0x576cca99"
    },
    {
      "constant": true,
      "inputs": [],
      "name": "showCount",
      "outputs": [
        {
          "name": "",
          "type": "uint256"
        }
      ],
      "payable": false,
      "stateMutability": "view",
      "type": "function",
      "signature": "0x5f0b8444"
    },
    {
      "constant": true,
      "inputs": [
        {
          "name": "id",
          "type": "uint256"
        }
      ],
      "name": "getTrade",
      "outputs": [
        {
          "name": "",
          "type": "string"
        },
        {
          "name": "",
          "type": "string"
        },
        {
          "name": "",
          "type": "uint256"
        }
      ],
      "payable": false,
      "stateMutability": "view",
      "type": "function",
      "signature": "0x2db25e05"
    },
    {
      "constant": true,
      "inputs": [
        {
          "name": "id",
          "type": "uint256"
        }
      ],
      "name": "validId",
      "outputs": [
        {
          "name": "",
          "type": "bool"
        }
      ],
      "payable": false,
      "stateMutability": "view",
      "type": "function",
      "signature": "0x73106f57"
    },
    {
      "constant": false,
      "inputs": [],
      "name": "fund",
      "outputs": [],
      "payable": true,
      "stateMutability": "payable",
      "type": "function",
      "signature": "0xb60d4288"
    }
  ],
  "bytecode": "0x608060405234801561001057600080fd5b50600060048190555060006005819055506000600681905550336000806101000a81548173ffffffffffffffffffffffffffffffffffffffff021916908373ffffffffffffffffffffffffffffffffffffffff16021790555061242c806100786000396000f3fe6080604052600436106100ca576000357c0100000000000000000000000000000000000000000000000000000000900480632db25e05146100cf57806353f8226b146101f6578063576cca99146102c85780635f0b84441461030357806373106f571461032e5780638da5cb5b14610381578063a9fce45e146103d8578063b60d4288146105f8578063bfff69aa14610602578063c64ebad91461063d578063cb3195931461085d578063e23b23f6146108b0578063e45be8eb14610a02578063ecb9fec314610a2d575b600080fd5b3480156100db57600080fd5b50610108600480360360208110156100f257600080fd5b8101908080359060200190929190505050610a68565b604051808060200180602001848152602001838103835286818151815260200191508051906020019080838360005b83811015610152578082015181840152602081019050610137565b50505050905090810190601f16801561017f5780820380516001836020036101000a031916815260200191505b50838103825285818151815260200191508051906020019080838360005b838110156101b857808201518184015260208101905061019d565b50505050905090810190601f1680156101e55780820380516001836020036101000a031916815260200191505b509550505050505060405180910390f35b34801561020257600080fd5b506102c66004803603604081101561021957600080fd5b81019080803590602001909291908035906020019064010000000081111561024057600080fd5b82018360208201111561025257600080fd5b8035906020019184600183028401116401000000008311171561027457600080fd5b91908080601f016020809104026020016040519081016040528093929190818152602001838380828437600081840152601f19601f820116905080830192505050505050509192919290505050610c8a565b005b3480156102d457600080fd5b50610301600480360360208110156102eb57600080fd5b8101908080359060200190929190505050610f03565b005b34801561030f57600080fd5b5061031861121f565b6040518082815260200191505060405180910390f35b34801561033a57600080fd5b506103676004803603602081101561035157600080fd5b8101908080359060200190929190505050611229565b604051808215151515815260200191505060405180910390f35b34801561038d57600080fd5b50610396611253565b604051808273ffffffffffffffffffffffffffffffffffffffff1673ffffffffffffffffffffffffffffffffffffffff16815260200191505060405180910390f35b3480156103e457600080fd5b50610411600480360360208110156103fb57600080fd5b8101908080359060200190929190505050611278565b604051808a73ffffffffffffffffffffffffffffffffffffffff1673ffffffffffffffffffffffffffffffffffffffff1681526020018973ffffffffffffffffffffffffffffffffffffffff1673ffffffffffffffffffffffffffffffffffffffff168152602001806020018060200188815260200187815260200186600481111561049957fe5b60ff168152602001806020018515151515815260200184810384528b818151815260200191508051906020019080838360005b838110156104e75780820151818401526020810190506104cc565b50505050905090810190601f1680156105145780820380516001836020036101000a031916815260200191505b5084810383528a818151815260200191508051906020019080838360005b8381101561054d578082015181840152602081019050610532565b50505050905090810190601f16801561057a5780820380516001836020036101000a031916815260200191505b50848103825286818151815260200191508051906020019080838360005b838110156105b3578082015181840152602081019050610598565b50505050905090810190601f1680156105e05780820380516001836020036101000a031916815260200191505b509c5050505050505050505050505060405180910390f35b6106006114e8565b005b34801561060e57600080fd5b5061063b6004803603602081101561062557600080fd5b81019080803590602001909291905050506114ea565b005b34801561064957600080fd5b506106766004803603602081101561066057600080fd5b8101908080359060200190929190505050611834565b604051808a73ffffffffffffffffffffffffffffffffffffffff1673ffffffffffffffffffffffffffffffffffffffff1681526020018973ffffffffffffffffffffffffffffffffffffffff1673ffffffffffffffffffffffffffffffffffffffff16815260200180602001806020018881526020018781526020018660048111156106fe57fe5b60ff168152602001806020018515151515815260200184810384528b818151815260200191508051906020019080838360005b8381101561074c578082015181840152602081019050610731565b50505050905090810190601f1680156107795780820380516001836020036101000a031916815260200191505b5084810383528a818151815260200191508051906020019080838360005b838110156107b2578082015181840152602081019050610797565b50505050905090810190601f1680156107df5780820380516001836020036101000a031916815260200191505b50848103825286818151815260200191508051906020019080838360005b838110156108185780820151818401526020810190506107fd565b50505050905090810190601f1680156108455780820380516001836020036101000a031916815260200191505b509c5050505050505050505050505060405180910390f35b34801561086957600080fd5b506108966004803603602081101561088057600080fd5b8101908080359060200190929190505050611ab3565b604051808215151515815260200191505060405180910390f35b610a00600480360360408110156108c657600080fd5b81019080803590602001906401000000008111156108e357600080fd5b8201836020820111156108f557600080fd5b8035906020019184600183028401116401000000008311171561091757600080fd5b91908080601f016020809104026020016040519081016040528093929190818152602001838380828437600081840152601f19601f8201169050808301925050505050505091929192908035906020019064010000000081111561097a57600080fd5b82018360208201111561098c57600080fd5b803590602001918460018302840111640100000000831117156109ae57600080fd5b91908080601f016020809104026020016040519081016040528093929190818152602001838380828437600081840152601f19601f820116905080830192505050505050509192919290505050611ad3565b005b348015610a0e57600080fd5b50610a17611fae565b6040518082815260200191505060405180910390f35b348015610a3957600080fd5b50610a6660048036036020811015610a5057600080fd5b8101908080359060200190929190505050611fb4565b005b60608060006001600085815260200190815260200160002060009054906101000a900460ff161515610b02576040517f08c379a000000000000000000000000000000000000000000000000000000000815260040180806020018281038252600a8152602001807f756e76616c69642069640000000000000000000000000000000000000000000081525060200191505060405180910390fd5b60006002600086815260200190815260200160002090506060816002018054600181600116156101000203166002900480601f016020809104026020016040519081016040528092919081815260200182805460018160011615610100020316600290048015610bb35780601f10610b8857610100808354040283529160200191610bb3565b820191906000526020600020905b815481529060010190602001808311610b9657829003601f168201915b505050505090506060826003018054600181600116156101000203166002900480601f016020809104026020016040519081016040528092919081815260200182805460018160011615610100020316600290048015610c545780601f10610c2957610100808354040283529160200191610c54565b820191906000526020600020905b815481529060010190602001808311610c3757829003601f168201915b5050505050905081818460060160009054906101000a900460ff166004811115610c7a57fe5b9550955095505050509193909250565b6001600083815260200190815260200160002060009054906101000a900460ff161515610d1f576040517f08c379a000000000000000000000000000000000000000000000000000000000815260040180806020018281038252600a8152602001807f756e76616c69642069640000000000000000000000000000000000000000000081525060200191505060405180910390fd5b600060026000848152602001908152602001600020905060016004811115610d4357fe5b8160060160009054906101000a900460ff166004811115610d6057fe5b141580610dbd57503373ffffffffffffffffffffffffffffffffffffffff168160010160009054906101000a900473ffffffffffffffffffffffffffffffffffffffff1673ffffffffffffffffffffffffffffffffffffffff1614155b15610e43577faf576b98023e90caf6e5e8198b6efd4b6c17cea681f05b37105fec41a9607b7d81600501548260060160009054906101000a900460ff168360040154600060405180858152602001846004811115610e1757fe5b60ff1681526020018381526020018215151515815260200194505050505060405180910390a150610eff565b81816007019080519060200190610e5b929190612255565b5060028160060160006101000a81548160ff02191690836004811115610e7d57fe5b02179055507faf576b98023e90caf6e5e8198b6efd4b6c17cea681f05b37105fec41a9607b7d81600501548260060160009054906101000a900460ff168360040154600160405180858152602001846004811115610ed757fe5b60ff1681526020018381526020018215151515815260200194505050505060405180910390a1505b5050565b6001600082815260200190815260200160002060009054906101000a900460ff161515610f98576040517f08c379a000000000000000000000000000000000000000000000000000000000815260040180806020018281038252600a8152602001807f756e76616c69642069640000000000000000000000000000000000000000000081525060200191505060405180910390fd5b600060026000838152602001908152602001600020905060006004811115610fbc57fe5b8160060160009054906101000a900460ff166004811115610fd957fe5b14158061103657508060000160009054906101000a900473ffffffffffffffffffffffffffffffffffffffff1673ffffffffffffffffffffffffffffffffffffffff163373ffffffffffffffffffffffffffffffffffffffff1614155b156110ac577faf576b98023e90caf6e5e8198b6efd4b6c17cea681f05b37105fec41a9607b7d81600501546004836004015460006040518085815260200184600481111561108057fe5b60ff1681526020018381526020018215151515815260200194505050505060405180910390a15061121c565b6000809054906101000a900473ffffffffffffffffffffffffffffffffffffffff1673ffffffffffffffffffffffffffffffffffffffff166108fc60026000858152602001908152602001600020600401549081150290604051600060405180830381858888f19350505050158015611129573d6000803e3d6000fd5b5060046002600084815260200190815260200160002060060160006101000a81548160ff0219169083600481111561115d57fe5b021790555060006001600084815260200190815260200160002060006101000a81548160ff02191690831515021790555060016004600082825403925050819055507faf576b98023e90caf6e5e8198b6efd4b6c17cea681f05b37105fec41a9607b7d81600501548260060160009054906101000a900460ff1683600401546001604051808581526020018460048111156111f457fe5b60ff1681526020018381526020018215151515815260200194505050505060405180910390a1505b50565b6000600554905090565b60006001600083815260200190815260200160002060009054906101000a900460ff169050919050565b6000809054906101000a900473ffffffffffffffffffffffffffffffffffffffff1681565b60026020528060005260406000206000915090508060000160009054906101000a900473ffffffffffffffffffffffffffffffffffffffff16908060010160009054906101000a900473ffffffffffffffffffffffffffffffffffffffff1690806002018054600181600116156101000203166002900480601f0160208091040260200160405190810160405280929190818152602001828054600181600116156101000203166002900480156113705780601f1061134557610100808354040283529160200191611370565b820191906000526020600020905b81548152906001019060200180831161135357829003601f168201915b505050505090806003018054600181600116156101000203166002900480601f01602080910402602001604051908101604052809291908181526020018280546001816001161561010002031660029004801561140e5780601f106113e35761010080835404028352916020019161140e565b820191906000526020600020905b8154815290600101906020018083116113f157829003601f168201915b5050505050908060040154908060050154908060060160009054906101000a900460ff1690806007018054600181600116156101000203166002900480601f0160208091040260200160405190810160405280929190818152602001828054600181600116156101000203166002900480156114cb5780601f106114a0576101008083540402835291602001916114cb565b820191906000526020600020905b8154815290600101906020018083116114ae57829003601f168201915b5050505050908060080160009054906101000a900460ff16905089565b565b6001600082815260200190815260200160002060009054906101000a900460ff16151561157f576040517f08c379a000000000000000000000000000000000000000000000000000000000815260040180806020018281038252600a8152602001807f756e76616c69642069640000000000000000000000000000000000000000000081525060200191505060405180910390fd5b6000600260008381526020019081526020016000209050600260048111156115a357fe5b8160060160009054906101000a900460ff1660048111156115c057fe5b14158061161d57508060000160009054906101000a900473ffffffffffffffffffffffffffffffffffffffff1673ffffffffffffffffffffffffffffffffffffffff163373ffffffffffffffffffffffffffffffffffffffff1614155b156116a3577faf576b98023e90caf6e5e8198b6efd4b6c17cea681f05b37105fec41a9607b7d81600501548260060160009054906101000a900460ff16836004015460006040518085815260200184600481111561167757fe5b60ff1681526020018381526020018215151515815260200194505050505060405180910390a150611831565b60016002600084815260200190815260200160002060080160006101000a81548160ff02191690831515021790555060036002600084815260200190815260200160002060060160006101000a81548160ff0219169083600481111561170557fe5b02179055506000809054906101000a900473ffffffffffffffffffffffffffffffffffffffff1673ffffffffffffffffffffffffffffffffffffffff166108fc60026000858152602001908152602001600020600401549081150290604051600060405180830381858888f19350505050158015611787573d6000803e3d6000fd5b5060006001600084815260200190815260200160002060006101000a81548160ff0219169083151502179055507faf576b98023e90caf6e5e8198b6efd4b6c17cea681f05b37105fec41a9607b7d81600501548260060160009054906101000a900460ff16836004015460016040518085815260200184600481111561180957fe5b60ff1681526020018381526020018215151515815260200194505050505060405180910390a1505b50565b60038181548110151561184357fe5b90600052602060002090600902016000915090508060000160009054906101000a900473ffffffffffffffffffffffffffffffffffffffff16908060010160009054906101000a900473ffffffffffffffffffffffffffffffffffffffff1690806002018054600181600116156101000203166002900480601f01602080910402602001604051908101604052809291908181526020018280546001816001161561010002031660029004801561193b5780601f106119105761010080835404028352916020019161193b565b820191906000526020600020905b81548152906001019060200180831161191e57829003601f168201915b505050505090806003018054600181600116156101000203166002900480601f0160208091040260200160405190810160405280929190818152602001828054600181600116156101000203166002900480156119d95780601f106119ae576101008083540402835291602001916119d9565b820191906000526020600020905b8154815290600101906020018083116119bc57829003601f168201915b5050505050908060040154908060050154908060060160009054906101000a900460ff1690806007018054600181600116156101000203166002900480601f016020809104026020016040519081016040528092919081815260200182805460018160011615610100020316600290048015611a965780601f10611a6b57610100808354040283529160200191611a96565b820191906000526020600020905b815481529060010190602001808311611a7957829003601f168201915b5050505050908060080160009054906101000a900460ff16905089565b60016020528060005260406000206000915054906101000a900460ff1681565b600654341015611b47577faf576b98023e90caf6e5e8198b6efd4b6c17cea681f05b37105fec41a9607b7d600554600034600060405180858152602001846004811115611b1c57fe5b60ff1681526020018381526020018215151515815260200194505050505060405180910390a1611faa565b611b4f6122d5565b610120604051908101604052803373ffffffffffffffffffffffffffffffffffffffff1681526020013373ffffffffffffffffffffffffffffffffffffffff168152602001848152602001838152602001348152602001600554815260200160006004811115611bbb57fe5b8152602001602060405190810160405280600081525081526020016000151581525090506003819080600181540180825580915050906001820390600052602060002090600902016000909192909190915060008201518160000160006101000a81548173ffffffffffffffffffffffffffffffffffffffff021916908373ffffffffffffffffffffffffffffffffffffffff16021790555060208201518160010160006101000a81548173ffffffffffffffffffffffffffffffffffffffff021916908373ffffffffffffffffffffffffffffffffffffffff1602179055506040820151816002019080519060200190611cb792919061235b565b506060820151816003019080519060200190611cd492919061235b565b506080820151816004015560a0820151816005015560c08201518160060160006101000a81548160ff02191690836004811115611d0d57fe5b021790555060e0820151816007019080519060200190611d2e92919061235b565b506101008201518160080160006101000a81548160ff0219169083151502179055505050508060026000600554815260200190815260200160002060008201518160000160006101000a81548173ffffffffffffffffffffffffffffffffffffffff021916908373ffffffffffffffffffffffffffffffffffffffff16021790555060208201518160010160006101000a81548173ffffffffffffffffffffffffffffffffffffffff021916908373ffffffffffffffffffffffffffffffffffffffff1602179055506040820151816002019080519060200190611e1392919061235b565b506060820151816003019080519060200190611e3092919061235b565b506080820151816004015560a0820151816005015560c08201518160060160006101000a81548160ff02191690836004811115611e6957fe5b021790555060e0820151816007019080519060200190611e8a92919061235b565b506101008201518160080160006101000a81548160ff0219169083151502179055509050506001806000600554815260200190815260200160002060006101000a81548160ff021916908315150217905550600160046000828254019250508190555060016005600082825401925050819055507faf576b98023e90caf6e5e8198b6efd4b6c17cea681f05b37105fec41a9607b7d60016005540360026000600160055403815260200190815260200160002060060160009054906101000a900460ff1660026000600160055403815260200190815260200160002060040154600160405180858152602001846004811115611f8257fe5b60ff1681526020018381526020018215151515815260200194505050505060405180910390a1505b5050565b60065481565b6001600082815260200190815260200160002060009054906101000a900460ff161515612049576040517f08c379a000000000000000000000000000000000000000000000000000000000815260040180806020018281038252600a8152602001807f756e76616c69642069640000000000000000000000000000000000000000000081525060200191505060405180910390fd5b60006002600083815260200190815260200160002090506000600481111561206d57fe5b8160060160009054906101000a900460ff16600481111561208a57fe5b1415806120e657503373ffffffffffffffffffffffffffffffffffffffff168160000160009054906101000a900473ffffffffffffffffffffffffffffffffffffffff1673ffffffffffffffffffffffffffffffffffffffff16145b1561216c577faf576b98023e90caf6e5e8198b6efd4b6c17cea681f05b37105fec41a9607b7d81600501548260060160009054906101000a900460ff16836004015460006040518085815260200184600481111561214057fe5b60ff1681526020018381526020018215151515815260200194505050505060405180910390a150612252565b338160010160006101000a81548173ffffffffffffffffffffffffffffffffffffffff021916908373ffffffffffffffffffffffffffffffffffffffff16021790555060018160060160006101000a81548160ff021916908360048111156121d057fe5b02179055507faf576b98023e90caf6e5e8198b6efd4b6c17cea681f05b37105fec41a9607b7d81600501548260060160009054906101000a900460ff16836004015460016040518085815260200184600481111561222a57fe5b60ff1681526020018381526020018215151515815260200194505050505060405180910390a1505b50565b828054600181600116156101000203166002900490600052602060002090601f016020900481019282601f1061229657805160ff19168380011785556122c4565b828001600101855582156122c4579182015b828111156122c35782518255916020019190600101906122a8565b5b5090506122d191906123db565b5090565b61012060405190810160405280600073ffffffffffffffffffffffffffffffffffffffff168152602001600073ffffffffffffffffffffffffffffffffffffffff168152602001606081526020016060815260200160008152602001600081526020016000600481111561234557fe5b8152602001606081526020016000151581525090565b828054600181600116156101000203166002900490600052602060002090601f016020900481019282601f1061239c57805160ff19168380011785556123ca565b828001600101855582156123ca579182015b828111156123c95782518255916020019190600101906123ae565b5b5090506123d791906123db565b5090565b6123fd91905b808211156123f95760008160009055506001016123e1565b5090565b9056fea165627a7a7230582023a0d8620baa4aaffaee1d094f37307fdcfb54a1a43f67fb6d87df3063ffee350029",
  "source": "pragma solidity ^0.5.1;\r\n\r\ncontract Trades{\r\n\r\n    enum tradeState {Unaccept, Unfinish, Uncomfirm, End, Destory}\r\n\r\n    event StateTranslate(uint _id, tradeState _state, uint _price,bool _success);\r\n\r\n    struct trade{\r\n        //\r\n        address initiatorAddress;\r\n        //\r\n        address recipientAddress;\r\n        //\r\n        string title;\r\n        //\r\n        string detail;\r\n        //\r\n        uint price;\r\n        //id\r\n        uint id;\r\n        //\r\n        tradeState state;\r\n        //\r\n        string finishInfo;\r\n        //\r\n        bool comfirm;\r\n    }\r\n\r\n    address payable public owner;\r\n    mapping (uint => bool) public validTrade;\r\n    mapping (uint => trade) public tradeReceived;\r\n    trade[] public TradePool;\r\n    uint validCount;\r\n    uint count;\r\n    uint public minPrice;\r\n\r\n    constructor() public {\r\n        validCount = 0;\r\n        count = 0;\r\n        minPrice = 0;\r\n        owner = msg.sender;\r\n    }\r\n\r\n    function createTrade(string memory title_, string memory detail_) payable public {\r\n        if (msg.value < minPrice){\r\n            emit StateTranslate(count, tradeState.Unaccept, msg.value, false);\r\n            return;\r\n        }\r\n        trade memory item = trade({\r\n            initiatorAddress: msg.sender,\r\n            recipientAddress: msg.sender,\r\n            title: title_,\r\n            detail: detail_,\r\n            price: msg.value,\r\n            id: count,\r\n            state : tradeState.Unaccept,\r\n            finishInfo: \"\",\r\n            comfirm: false\r\n        });\r\n        TradePool.push(item);\r\n        tradeReceived[count] = item;\r\n        validTrade[count] = true;\r\n        validCount += 1;\r\n        count += 1;\r\n        emit StateTranslate(count-1, tradeReceived[count-1].state, tradeReceived[count-1].price, true);\r\n    }\r\n\r\n    function acceptTrade(uint id) public {\r\n        require(validTrade[id], \"unvalid id\");\r\n\r\n        trade storage tmptrade = tradeReceived[id];\r\n        if (tmptrade.state != tradeState.Unaccept || tmptrade.initiatorAddress == msg.sender){\r\n            emit StateTranslate(tmptrade.id, tmptrade.state, tmptrade.price, false);\r\n            return;\r\n        }\r\n        tmptrade.recipientAddress = msg.sender;\r\n        tmptrade.state = tradeState.Unfinish;\r\n        emit StateTranslate(tmptrade.id, tmptrade.state, tmptrade.price, true);\r\n    }\r\n\r\n    function finishTrade(uint id, string memory info) public{\r\n        require(validTrade[id], \"unvalid id\");\r\n\r\n        trade storage tmptrade = tradeReceived[id];\r\n        if (tmptrade.state != tradeState.Unfinish || tmptrade.recipientAddress != msg.sender){\r\n            emit StateTranslate(tmptrade.id, tmptrade.state, tmptrade.price, false);\r\n            return;\r\n        }\r\n        tmptrade.finishInfo = info;\r\n        tmptrade.state = tradeState.Uncomfirm;\r\n        emit StateTranslate(tmptrade.id, tmptrade.state, tmptrade.price, true);\r\n    }\r\n\r\n    function comfirmTrade(uint id) public{\r\n        require(validTrade[id], \"unvalid id\");\r\n\r\n        trade storage tmptrade = tradeReceived[id];\r\n        if(tmptrade.state != tradeState.Uncomfirm || msg.sender != tmptrade.initiatorAddress){\r\n            emit StateTranslate(tmptrade.id, tmptrade.state, tmptrade.price, false);\r\n            return;\r\n        }\r\n        tradeReceived[id].comfirm = true;\r\n        tradeReceived[id].state = tradeState.End;\r\n        owner.transfer(tradeReceived[id].price);\r\n        validTrade[id] = false;\r\n        emit StateTranslate(tmptrade.id, tmptrade.state, tmptrade.price, true);\r\n    }\r\n    \r\n    function destoryTrade(uint id) public{\r\n        require(validTrade[id], \"unvalid id\");\r\n\r\n        trade storage tmptrade = tradeReceived[id];\r\n        if(tmptrade.state != tradeState.Unaccept || msg.sender != tmptrade.initiatorAddress){\r\n            emit StateTranslate(tmptrade.id, tradeState.Destory, tmptrade.price, false);\r\n            return;\r\n        }\r\n        owner.transfer(tradeReceived[id].price);\r\n        tradeReceived[id].state = tradeState.Destory;\r\n        validTrade[id] = false;\r\n        validCount -= 1;\r\n        emit StateTranslate(tmptrade.id, tmptrade.state, tmptrade.price, true);\r\n    }\r\n\r\n    function showCount() view public returns (uint){\r\n        return count;\r\n    }\r\n\r\n    function getTrade(uint id) view public returns (string memory, string memory, uint){\r\n        require(validTrade[id], \"unvalid id\");\r\n\r\n        trade storage tmptrade = tradeReceived[id];\r\n        string memory title_ = tmptrade.title;\r\n        string memory detail_ = tmptrade.detail;\r\n        return (title_, detail_, uint(tmptrade.state));\r\n    }\r\n\r\n    function validId(uint id) view public returns (bool){\r\n        return validTrade[id];\r\n    } \r\n\r\n    function fund() external payable {}\r\n}\r\n",
  "sourcePath": "D:/gitRep/dapp/contracts/Trades.sol",
  "compiler": {
    "name": "solc",
    "version": "0.5.1+commit.c8a2cb62.Emscripten.clang"
  },
  "schemaVersion": "3.0.0-beta.2",
  "updatedAt": "2018-12-19T16:53:18.956Z",
  "devdoc": {
    "methods": {}
  },
  "userdoc": {
    "methods": {}
  }
}